:100000000C9451000E947D000E947D000E947D00A2
:100010000E947D000E947D000E947D000E947D0064
:100020000E947D000E947D000E947D000E947D0054
:100030000E947D000E947D000E946F0E0E947D0044
:100040000E947D000E947D000E947D000E947D0034
:100050000E947D000E947D000E947D000E947D0024
:100060000E947D000E947D000E947D000E947D0014
:100070000E947D000E947D000E947D000E947D0004
:100080000E947D000E947D000E947D0016034303B4
:100090006B03BE00AE03F9037007FD08530CC70CD9
:1000A0004C0C11241FBECFEFD0E1DEBFCDBF11E05D
:1000B000A0E0B1E0EAE4FDE100E00BBF02C0079080
:1000C0000D92AA34B107D9F711E0AAE4B1E001C05A
:1000D0001D92AD3DB107E1F710E0C0EAD0E004C0E9
:1000E0002297FE010E94960ECC38D107C9F70C94D6
:1000F000D7010E946C0C0E94D7011F920F920FB67D
:100100000F928F93CF93DF93DEB7CDB788851A8098
:10011000188619801F822296DEBFCDBF11242F932F
:100120003F934F935F936F937F939F93AF93BF934F
:10013000EF93FF93869581500E945A0CFF91EF91A7
:10014000BF91AF919F917F916F915F914F913F913F
:100150002F918F910F900FBE0F901F90DF91CF9135
:1001600018956F5F7F4F09F008950197E9F78AE0CE
:1001700090E090934B0180934A0108956FEF7FEFD9
:1001800081E090E00E94B1000895FFCFCF93DF930C
:10019000FC01C081D181209741F0CE010E94C600B0
:1001A000BE018CE491E00E94F804DF91CF910895A4
:1001B0002F923F924F925F926F927F928F929F9277
:1001C000AF92BF92CF92DF92EF92FF920F931F9365
:1001D000CF93DF93CDB7DEB724970FB6F894DEBF89
:1001E0000FBECDBF9A8389837C836B830CE411E0BF
:1001F00062E070E0C8010E9400051C0162E070E04E
:10020000C8010E9400052C0162E070E0C8010E9454
:1002100000053C0162E070E0C8010E9400054C014D
:1002200062E070E0C8010E9400055C0162E070E0DD
:10023000C8010E9400056C0162E070E0C8010E94E4
:1002400000057C0162E070E0C8010E9400058C019D
:100250006B817C810E94D800F70111830083F60135
:10026000F182E082F501D182C082F401B182A082E4
:10027000F30191828082F20171826082F1015182E8
:100280004082E981FA813182208224960FB6F89467
:10029000DEBF0FBECDBFDF91CF911F910F91FF90B9
:1002A000EF90DF90CF90BF90AF909F908F907F9016
:1002B0006F905F904F903F902F900895AF92BF92B4
:1002C000CF92DF92EF92FF920F931F93CF93DF9322
:1002D000CDB7DEB724970FB6F894DEBF0FBECDBF03
:1002E0008FEF8ABB87BB8BBB88BB109290008FE2DD
:1002F00089B986E8809395001BB88AB188618AB96C
:1003000062E070E08CE491E00E9400057C0162E014
:1003100070E08CE491E00E9400058C0160E070E0E8
:100320000E94D800F7011183008393E0C92ED12CDD
:10033000CC0EDD1E82E0A82EB12CAC0EBD1E02E05C
:1003400010E09601A501BE016F5F7F4FC7010E94BB
:10035000C500AC012FEF3FEF21503040E9F784E0BA
:1003600088BB4230510559F78FEF9FEF0197F1F7A6
:100370008FEF9FEF0197F1F78FEF9FEF0197F1F765
:1003800081E088BB809100018F5F809300018150E4
:1003900080958BBB8C815D9BFECF8CB98B815D9BE7
:1003A000FECF8CB91C821B8284E088BBC8CF8FEF44
:1003B00087BB18BA8FEF9FEF0197F1F766E070E007
:1003C0008CE491E00E9400056C0162E070E08CE436
:1003D00091E00E9400057C0162E070E08CE491E015
:1003E0000E9400058C0160E070E00E94D800D701F7
:1003F0000D931C93E601FB82EA828FEF8ABB8BBBD5
:1004000063E070E08CE491E00E940005DC0111964D
:100410001C921E92109290008FE289B986E8FD012D
:1004200082838D919C911197892B09F09CC0E5E7FF
:10043000F0E086E880A38D919C911197892B09F0BB
:100440008FC0EBE0F0E010A22D913C9111972115A7
:10045000310509F082C0EAE0F0E080A18861232B39
:1004600009F078C0EAE0F0E080A3E601B983A88350
:100470008FEF87BB8FEF9FEF0197F1F78FEF9FEF24
:100480000197F1F781E088BB8FEF9FEF0197F1F7BC
:1004900080912201882321F1C3E2D1E0FE0131974E
:1004A0009081D601ED91FC912081318106C0ABE0B5
:1004B000B0E0FD0180A185FD09C021153105B9F32A
:1004C000ABE7B0E0FD0180A185FFF7CF232B09F05A
:1004D0003EC0ECE0F0E090A3FE018991882301F793
:1004E0008FEF9FEF0197F1F78FEF9FEF0197F1F7F4
:1004F00084E088BB809101018823C1F122E031E0D2
:10050000F90131979081D601ED91FC910190F08134
:10051000E02D06C0ABE0B0E0ED0188A185FD08C08C
:100520003097C1F3ABE7B0E0ED0188A185FFF8CFCC
:10053000EF2B51F4ECE0F0E090A3F901D9018D919B
:100540009D018823F9F612C0ECE7F0E0F5CFECE767
:10055000F0E0C1CFEAE7F0E087CFEAE7F0E07DCF57
:10056000EBE7F0E070CFEDE7F0E063CF80E090E004
:100570000C94BA020C94B5031FB6FF93EF93DF936C
:10058000CF93BF93AF939F938F937F936F935F931B
:100590004F933F932F931F930F93FF92EF92DF920E
:1005A000CF92BF92AF929F928F927F926F925F9203
:1005B0004F923F922F920F921F921124B92FA82F82
:1005C0009EB78DB701968D939C93972F862F019799
:1005D0009EBF8DBF1F900F902F903F904F905F90C8
:1005E0006F907F908F909F90AF90BF90CF90DF9053
:1005F000EF90FF900F911F912F913F914F915F913D
:100600006F917F918F919F91AF91BF91CF91DF912A
:10061000EF91FF911FBE112408956F5F7F4F09F086
:1006200008950197E9F70E94460608956FEF7FEF5E
:1006300081E090E00E940D030895CF93DF93CDB742
:10064000DEB722970FB6F894DEBF0FBECDBF6F5F47
:100650007F4F81F4019771F460E072E0CE01019662
:100660000E94D40D69817A8140E052E08CE491E0EF
:100670000E945A0422960FB6F894DEBF0FBECDBF7B
:10068000DF91CF9108956FEF7FEF81E090E00E94BE
:100690001D0308956F5F7F4F09F008950197E9F7F3
:1006A0008AE090E090935701809356019093550112
:1006B0008093540110924D0110924C0110924F0101
:1006C00010924E011092510110925001109253015C
:1006D0001092520108956FEF7FEF81E090E00E9449
:1006E0004A030895CF93DF93CDB7DEB722970FB6B5
:1006F000F894DEBF0FBECDBF0E9452050E94B80322
:10070000FC0186A9882321F489E790E095AB84ABAE
:1007100060ED77E0CE0101960E94D40D69817A8167
:1007200040ED57E089E591E00E945A040E94890556
:100730000E94A10522960FB6F894DEBF0FBECDBF72
:10074000DF91CF9108956F5F7F4F09F00895019772
:10075000E9F788E591E00E94720308956FEF7FEF5B
:1007600081E090E00E94A30308950E943F0BFFCF19
:10077000809147019091480108956F5F7F4F09F084
:1007800008950197E9F7109289011092880110925B
:1007900090008FE289B986E880938A018093950062
:1007A0001BB8EAE0F0E080A1886180A31092870185
:1007B0001092860110928501109284018AE090E0E7
:1007C000909364018093630190936201809361012F
:1007D00010925A011092590110925C0110925B0123
:1007E00010925E0110925D011092600110925F0103
:1007F00008956FEF7FEF81E090E00E94BD030895C0
:1008000085B7837E85BF88950895CF93DF93EC01EC
:10081000AB018A819B816C817D8128813981213066
:100820003105C1F0FA01A481B581109769F1FA018F
:10083000868197810097A9F0FD0197838683FA014D
:1008400086819781FC01B583A48321503040398390
:1008500028832CC01B821A821D821C821982188256
:1008600025C02115310511F12130310599F3FB0126
:10087000A481B581BD83AC83FD011782168221500E
:1008800030403983288312C02115310579F0213099
:10089000310501F3FC01A681B781BB83AA83FD0169
:1008A000158214822150304039832883CA01DF9198
:1008B000CF9108950F931F93CF93DF93DC018B01AA
:1008C0006115710509F48FC04830510508F48BC0DB
:1008D000FB017183608353834283158214821782E4
:1008E0001682FC0186819781840F951F97838683EA
:1008F000FB0122813381260F371FFD01C281D38185
:10090000209709F443C08881998128173907F1F1AC
:10091000BE01FB01668177816115710531F0FB0134
:100920008081918128173907A1F7F8014081518111
:10093000209731F431C00E80DF81C02D209761F106
:10094000888199812A813B81820F931F481759071B
:1009500091F76115710571F0F80182819381FB01B6
:1009600022813381820F931FF80193838283CD010B
:100970000E9405042097B9F18A819B81F8012281A8
:100980003381820F931F9B838A832DC0BE01F801A0
:10099000408151812097A1F6FD01248135818D91FF
:1009A0009C911197009779F4F801158214821782AF
:1009B0001682FD0113830283158304830196119629
:1009C0009C938E93C6CFF90117830683F801358374
:1009D000248317821682FD011583048301961196E4
:1009E0009C938E93B6CFDF91CF911F910F91089575
:1009F000FB01329740815181BF010E945A04089542
:100A00000F931F93CF93DF93FC016115710519F4C8
:100A100021C06F5F7F4F60FDFCCF8B010E5F1F4FCA
:100A20000830110580F1C281D381209781F09801AF
:100A3000285F3F4F8A819B818217930770F480174C
:100A4000910759F00E80DF81C02D209799F7CF01D3
:100A50000E94000480E090E020C0801B910B9B83EB
:100A60008A8386819781801B910B978386838A81F5
:100A70009B81009759F0E881F981E80FF91F0193F4
:100A80001193CF010AC008E010E0CDCFBE01CF0125
:100A90000E9405048A819B81EECFDF91CF911F9147
:100AA0000F91089585B7806285BF0E945A050E9404
:100AB0007B050895CF93DF93CDB7DEB722970FB6AE
:100AC000F894DEBF0FBECDBF0E94B8038EED91E05B
:100AD0009A83898360E070E1681B790BCE010196EF
:100AE0000E94CE0C22960FB6F894DEBF0FBECDBF8B
:100AF000DF91CF91089585E08EBD1092D9011092BB
:100B0000DA011092DB011092DC0187B7846087BFA5
:100B100008950E94B80329E730E0FC0135AB24AB0F
:100B200019BE17BE10927D006F988AB18F718AB975
:100B3000EAE9F0E080818F71808337984798E398E5
:100B400008950E942C070E94A60508950E94B803EC
:100B50000895BC018930910568F429B7615070404F
:100B600081E090E002C0880F991F6A95E2F7282B78
:100B700029BF089581319105B8F08831910519F1A7
:100B80008931910530F58431910509F457C08531DB
:100B9000910508F43DC08631910509F461C047977D
:100BA00008F45CC0479A089547B720E130E0281B5D
:100BB000390B81E090E002C0880F991F2A95E2F777
:100BC000482B47BF089580917D00816080937D0010
:100BD00008958C31910561F18D31910570F08E3160
:100BE000910509F43FC08E31910550F18F31910587
:100BF00009F446C08097B1F008958A319105D1F18A
:100C00004B9730F180917D00886080937D0008953E
:100C10008231910569F183319105C0F4419761F703
:100C20006F9A089580919A00806480939A00089545
:100C300080917D00826080937D000895569A08958A
:100C400080917D00846080937D000895559A089579
:100C500080917D00806280937D000895379A089589
:100C6000E39A089580919A00806880939A0008958D
:100C7000579A089580917D00806180937D0008954A
:100C800080919A00806280939A0008959F92AF921B
:100C9000BF92CF92DF92EF92FF920F931F93CF9369
:100CA000DF93CDB7DEB72C970FB6F894DEBF0FBE3B
:100CB000CDBF0E94B803FC0104A915A918861F82A4
:100CC00089E5A82E81E0B82E62E170E0C5010E949E
:100CD00000057C0182E090E0F70195838483178210
:100CE000168211861086D7011A96F386E2868F81C6
:100CF00098859E838D838D819E81FD019383828360
:100D00001582148217821682F89460E071E0C501A2
:100D10000E940005AC01D7018D939C9384E09CE078
:100D2000D82ECC24892F9927C82AD92A42505F4F20
:100D3000FA01D182C0824E5F5040DA01A452BF4F07
:100D4000F0E89F2E9C92902F8827212F3327822B0B
:100D5000932BFD0191A380A3448F852F9927858F25
:100D6000F701B383A2831C870B8740E051E0BE01EB
:100D7000655F7F4FC7010E94670A8FEF9FE79C83E3
:100D80008B8362E170E0C5010E9400058C0181E067
:100D900090E0F8019583848317821682118610866D
:100DA000D8011A96138702878B819C819A83898345
:100DB00089819A81FD01938382831582148217822F
:100DC0001682F89460E071E0C5010E940005BC0144
:100DD000D8018D939C9362507F4FFB01D182C082DA
:100DE0006E5F70404CE15BE0DB01A452BF4F9C9210
:100DF000942F8827252F3327822B932BFD0191A336
:100E000080A3648F872F9927858FF801B383A283EE
:100E10005A87498740E051E0BE01675F7F4FC801B4
:100E20000E94670A81E080937501F70182819381B6
:100E30000E94890C2C960FB6F894DEBF0FBECDBF72
:100E4000DF91CF911F910F91FF90EF90DF90CF90A6
:100E5000BF90AF909F9008950F931F9361E070E053
:100E600089E591E00E9400058C011092870081E0E5
:100E7000809386008DE080938A008DE598E09093C2
:100E8000C0018093BF018AE190E00E94A905EDE7CF
:100E9000F0E08081806180831093700100936F0186
:100EA00080E090E01F910F9108956F5F7F4F09F0F0
:100EB00008950197E9F71092720110927101109252
:100EC00074011092730110926601109265011092E4
:100ED00068011092670110926A01109269010895E9
:100EE0006FEF7FEF81E090E00E94550708950F9328
:100EF0001F93CF93DF938C01FB01EA017987688709
:100F0000E9017F836E835783468331872087F80109
:100F100080819181019691838083DF91CF911F9190
:100F20000F910895AF92BF92CF92DF92EF92FF920E
:100F30000F931F93CF93DF938C01EB01FC01608132
:100F400071816115710509F46AC0FC01C280D3800A
:100F50002A813B814C815D81F60182819381A4814C
:100F6000B581281739074A075B0708F43FC0F60127
:100F7000808591850097D1F15C0182819381A48164
:100F8000B581281B390B4A0B5B0B2A833B834C83AF
:100F90005D837501F50182819381A481B581281754
:100FA00039074A075B0740F1F501A084B184A11419
:100FB000B10439F7281739074A075B0710F5F7011D
:100FC000A680B780A114B10409F445C0821B930B1D
:100FD000A40BB50BF70182839383A483B583970198
:100FE000A501BE01C8010E9477075CC07601F60129
:100FF00082819381A481B581281739074A075B074D
:10100000F0F2281B390B4A0B5B0B2A833B834C8382
:101010005D83F801A481B5816115710569F41F82B2
:101020001E8219861886D383C283D583C48361E068
:1010300070E07183608336C0FD01D187C087BF83B4
:10104000AE8319861886F801D583C4836F5F7F4FFE
:101050007183608327C0821B930BA40BB50B828323
:101060009383A483B5836115710579F01F821E8275
:10107000D986C886F601D783C683F801D383C28395
:101080006F5F7F4F718360830DC01F821E82198640
:101090001886F801D383C283D583C48361E070E0EE
:1010A00071836083DF91CF911F910F91FF90EF903B
:1010B000DF90CF90BF90AF900895CF93DF93F894D7
:1010C00080916B0190916C01A0916D01B0916E01C6
:1010D0000196A11DB11D80936B0190936C01A093AB
:1010E0006D01B0936E01209165013091660121156B
:1010F0003105A1F04091670150916801EA018A81B0
:101100009B81AC81BD810197A109B109FA0182835C
:101110009383A483B583181619068CF4C0E0D0E03D
:101120007894209709F447C0EC81FD81A081B181BA
:10113000ED012C813D81CF01F90109953CC02130A1
:10114000310561F1EA01E885F985F0936801E093E2
:101150006701178216822150304030936601209338
:101160006501FA01C081D1818E819F81FFEF8F3FA0
:101170009F0719F001979F838E83892B89F28881BD
:101180009981AA81BB81FA0182839383A483B58369
:10119000BA0185E691E00E949207C2CF10926801E1
:1011A0001092670110926A01109269011092660113
:1011B00010926501D6CFDF91CF9108956F5F7F4F79
:1011C00009F008950197E9F71092810110928001CA
:1011D0001092830110928201109277011092760191
:1011E000109279011092780110927B0110927A018D
:1011F00010927D0110927C0108956FEF7FEF81E0E6
:1012000090E00E94DE0808950F931F93CF93DF9321
:101210008C01FB01EA017F836E83E9017D836C838E
:101220005583448337832683F80180819181019619
:1012300091838083DF91CF911F910F910895CF9378
:10124000DF93EC01AB018A819B816C817D812881D8
:10125000398121303105C1F0FA01A481B58110979F
:1012600069F1FA01868197810097A9F0FD019783C2
:101270008683FA0186819781FC01B583A48321507E
:101280003040398328832CC01B821A821D821C8225
:101290001982188225C02115310511F1213031053F
:1012A00099F3FB01A481B581BD83AC83FD01178255
:1012B0001682215030403983288312C02115310510
:1012C00079F02130310501F3FC01A681B781BB83A0
:1012D000AA83FD011582148221503040398328836E
:1012E000CA01DF91CF910895EF92FF920F931F9360
:1012F000CF93DF937C01DB01EC016881798161157B
:10130000710509F445C0EC010A811B81F8012281B5
:101310003381ED018A819B81821793074CF1E801AB
:101320008E819F81009721F1FC01AF0122813381E1
:10133000ED018A819B8182179307DCF00680F7819B
:10134000E02D309791F7EA012A813B81FD018281EE
:10135000938182179307B4F4EA018C819D810097F1
:10136000A1F19A01AC01BD01C7010E9404094EC060
:10137000A801EA012A813B81FD01828193818217C4
:10138000930754F3E701EC81FD816115710571F458
:10139000FD011582148217821682BB83AA83BD8346
:1013A000AC8361E070E07983688330C0B783A68343
:1013B000ED01FD83EC831F821E82F701B583A483B8
:1013C0006F5F7F4F7183608321C06115710581F06C
:1013D000FD011582148217830683E801BD83AC8367
:1013E000F701B383A2836F5F7F4F718360830EC069
:1013F000FD011582148217821682E701BB83AA833E
:10140000BD83AC8361E070E079836883DF91CF9125
:101410001F910F91FF90EF900895CF93DF93882352
:1014200009F451C0E0917C01F0917D01C081D1812E
:1014300080917C0190917D0180917601909177015E
:10144000892BC9F4E0917C01F0917D010190F0813C
:10145000E02DCE17DF07B9F18C819D81029771F1E4
:1014600082E090E09583848362817381CE0102964D
:101470000E94BC0228C060917C0170917D0186E7CA
:1014800091E00E941F0960917C0170917D0186E7C7
:1014900091E00E9474098091780190917901909374
:1014A0007D0180937C01E0917C01F0917D010190B0
:1014B000F081E02DCE17DF0779F605C081E090E0DE
:1014C0009D838C83CDCF7894DF91CF910895CF9376
:1014D000DF93EC018A819B8180917E0190917F0155
:1014E000019690937F0180937E0180917C01909181
:1014F0007D01BE01665F7F4F86E791E00E9474091F
:1015000080917C0190917D01892BA1F18C819D813D
:101510000197C9F18C819D810297A9F180917C018D
:1015200090917D016A857B85C0917801D091790188
:10153000209731F428C00E80DF81C02D209719F14B
:101540008881998168177907B1F7BE0186E791E034
:101550000E941F0980917C0190917D018C179D074D
:1015600091F4809178019091790190937D0180931D
:101570007C0109C0809178019091790190937D015F
:1015800080937C01C3CF81E00E940D0ADF91CF914F
:1015900008950F931F93CF93DF93F89480917C016C
:1015A00090917D01E0917C01F0917D01C081D1811C
:1015B00080917C0190917D018091760190917701DD
:1015C0000297B0F000917C0110917D01B80186E78F
:1015D00091E00E941F098091780190917901909388
:1015E0007D0180937C01B80186E791E00E94740937
:1015F000E0917C01F0917D010190F081E02DCE170A
:10160000DF07A1F08C819D81029759F082E090E084
:101610009583848362817381CE0102960E94BC020D
:1016200005C081E090E09D838C83F0CF7894DF91BA
:10163000CF911F910F91089540917E0150917F01AC
:1016400020917601309177014115510519F4F894F4
:101650000C94000085B7837E85BF889522303105C4
:1016600098F30E94C90A40917E0150917F01209118
:101670007601309177014115510561F7E8CFEF927E
:10168000FF920F931F93CF93DF937C01F894809187
:101690007C0190917D01E0917C01F0917D010081C0
:1016A000118180917C0190917D01E8012A853B8523
:1016B000C0917801D0917901209731F417C00E8044
:1016C000DF81C02D209791F08881998128173907F3
:1016D000B1F7BE0186E791E00E941F0980917C016D
:1016E00090917D018C179D0709F474C0D801ED918C
:1016F000FC91F182E08285E090E0E8019D838C839B
:1017000080917E0190917F01019790937F0180935A
:101710007E0188859985892BE1F0E885F98581E04E
:1017200090E0958384836885798580917C01909190
:101730007D01665F7F4F86E791E00E94740980918A
:101740007C0190917D01892B09F44DC0F80111862F
:10175000108680917C0190917D018091760190911D
:101760007701892BC1F060917C0170917D0186E742
:1017700091E00E941F0960917C0170917D0186E7D4
:1017800091E00E9474098091780190917901909381
:101790007D0180937C01E0917C01F0917D010190BD
:1017A000F081E02D0E171F0739F1E8018C819D8132
:1017B000029759F082E090E095838483628173817F
:1017C000C80102960E94BC0217C081E090E09D8390
:1017D0008C83F0CF809178019091790190937D0175
:1017E00080937C0183CF80917801909179019093CF
:1017F0007D0180937C01AACF7894DF91CF911F91D6
:101800000F91FF90EF900895882F992F0E943F0B22
:1018100008956F5F7F4F09F0089581309105F1F0D1
:10182000892BD1F78091880190918901892B51F5FD
:10183000E0E7F0E010A28091880190918901892B66
:1018400041F5E9E0F0E010A28091880190918901D2
:10185000892BD9F4EAE0F0E010A2089510928901F2
:1018600010928801109290008FE289B986E88093E7
:101870008A01809395001BB8EAE0F0E080A18861BE
:1018800080A30895E8E7F0E0D5CFEAE7F0E010A202
:101890000895E9E7F0E0D7CF6FEF7FEF80E090E0C9
:1018A0000E94090C08956FEF7FEF81E090E00E94A5
:1018B000090C0895E82FFF27E7FDF095E332F105C5
:1018C00050F4EE0FFF1FE557FE4F0190F081E02D21
:1018D000309709F009950895CF93DF93CDB7DEB720
:1018E00022970FB6F894DEBF0FBECDBF80E090E127
:1018F0009A83898360E071E0CE0101960E94CE0C4C
:1019000022960FB6F894DEBF0FBECDBFDF91CF9108
:10191000089501979EBF8DBF1F900F902F903F900D
:101920004F905F906F907F908F909F90AF90BF90FF
:10193000CF90DF90EF90FF900F911F912F913F91EB
:101940004F915F916F917F918F919F91AF91BF91D7
:10195000CF91DF91EF91FF911FBE1124089508955B
:101960006F5F7F4F09F008950197E9F71092D20158
:101970001092D1011092D4011092D3011092D6018D
:101980001092D5011092D8011092D70108956FEFEF
:101990007FEF81E090E00E94B00C0895EF92FF92FB
:1019A0000F931F93CF93DF93FC01008111810115E9
:1019B000110509F4F2C06115710509F4EEC0F801D2
:1019C0001183008373836283158214828091D7010F
:1019D0009091D801860F971F9093D8018093D701DB
:1019E000628173819801260F371F4091D301509176
:1019F000D4014115510509F480C0FA01808191811B
:101A00002817390709F479C0EA010C80DD81C02D5F
:101A1000209729F08881998182179307B1F7F801FF
:101A2000E080F1804115510509F465C0FA0180811B
:101A3000918122813381820F931FE816F90609F400
:101A40005AC0DA01FD01A481B581109759F0FD015A
:101A5000828193812D913C911197820F931FE816FB
:101A6000F90681F72097C9F18A819B81860F971F1C
:101A7000F801938382832091D1013091D2012130EA
:101A80003105E9F14C175D0709F476C041155105A0
:101A9000B1F0FA0184819581009749F40BC0AC0143
:101AA000009769F0FC0184819581009719F0C817AF
:101AB000D907A9F78C819D81FA0195838483809150
:101AC000D5019091D601C817D90709F450C021500B
:101AD00030403093D2012093D1011097E9F0FD01FD
:101AE00082819381F80122813381820F931FFD014E
:101AF0009383828352C0DA01B5CFEA0190CF10926E
:101B0000D4011092D3011092D6011092D5011092F7
:101B1000D2011092D101E1CF8091D1019091D201F7
:101B2000009799F0E091D501F091D60115830483D7
:101B3000F801158214821093D6010093D501019605
:101B40009093D2018093D10128C0F80115821482AC
:101B50001093D4010093D3011093D6010093D501C3
:101B600021E030E03093D2012093D10116C0509390
:101B7000D6014093D501ABCF2115310509F4ADCF86
:101B80008C819D819093D4018093D301215030406A
:101B90003093D2012093D101A0CFDF91CF911F913B
:101BA0000F91FF90EF9008950F931F93CF93DF93C2
:101BB0008C01EC01198218826115710509F489C044
:101BC000E091D301F091D401DF01309709F481C095
:101BD000228133812617370730F40480F581E02D08
:101BE0003097B1F776C0261B370B33832283809161
:101BF000D7019091D801861B970B9093D8018093C1
:101C0000D7012281338121153105A9F54091D101F8
:101C10005091D20141305105B1F1BD01AE17BF075E
:101C200009F440C01097C1F0ED01AC81BD8110975F
:101C300071F0AE17BF0759F0BD01109769F0ED01C3
:101C4000AC81BD81109719F0EA17FB07A9F7A481B1
:101C5000B581EB01BD83AC838091D5019091D60114
:101C60008E179F0789F1415050405093D201409305
:101C7000D1012281338180819181820F931FF801EC
:101C80009183808326C01092D4011092D3011092C8
:101C9000D6011092D5011092D2011092D101228169
:101CA0003381E9CF4115510531F3A481B581B0935A
:101CB000D401A093D301415050405093D20140939E
:101CC000D10122813381D7CF7093D6016093D501A2
:101CD000CACFC801DF91CF911F910F9108951F9234
:101CE0000F920FB60F9211248F939F93AF93BF93D0
:101CF0008091D9019091DA01A091DB01B091DC01D2
:101D00000196A11DB11D8093D9019093DA01A09392
:101D1000DB01B093DC01BF91AF919F918F910F9048
:101D20000FBE0F901F901895EE0FFF1F0590F491B6
:101D3000E02D099410E0C0EAD0E004C0FE010E944A
:0A1D4000960E2296C23AD107C9F7A9
:101D4A000141542D4C53485352563D223230302EC5
:101D5A003134322E3133302E313034222C22383085
:101D6A00220041542D4C534841504E3D227A617015
:101D7A002E636F6D2E6272222C227669766F222C68
:0A1D8A00227669766F220000100037
:00000001FF
