:100000000C9451000E947D000E947D000E947D00A2
:100010000E947D000E947D000E947D000E947D0064
:100020000E947D000E947D000E947D000E947D0054
:100030000E947D000E947D000E94900D0E947D0024
:100040000E947D000E947D000E947D000E947D0034
:100050000E947D000E947D000E947D000E947D0024
:100060000E947D000E947D000E947D000E947D0014
:100070000E947D000E947D000E947D000E947D0004
:100080000E947D000E947D000E947D003702640274
:100090008C02BE00CF021A0391061E08740BE80BF7
:1000A0006D0B11241FBECFEFD0E1DEBFCDBF11E03D
:1000B000A0E0B1E0ECE8FBE100E00BBF02C007907C
:1000C0000D92A430B107D9F711E0A4E0B1E001C06E
:1000D0001D92A739B107E1F710E0C0EAD0E004C0F3
:1000E0002297FE010E94B70DCC38D107C9F70C94B6
:1000F000D0010E948D0B0E94D0011F920F920FB66B
:100100000F928F93CF93DF93DEB7CDB788851A8098
:10011000188619801F822296DEBFCDBF11242F932F
:100120003F934F935F936F937F939F93AF93BF934F
:10013000EF93FF93869581500E947B0BFF91EF9187
:10014000BF91AF919F917F916F915F914F913F913F
:100150002F918F910F900FBE0F901F90DF91CF9135
:1001600018956F5F7F4F09F008950197E9F78AE0CE
:1001700090E0909305018093040108956FEF7FEF65
:1001800081E090E00E94B1000895FFCFCF93DF930C
:10019000FC01C081D181209741F0CE010E94C600B0
:1001A000BE0186E091E00E941904DF91CF9108958D
:1001B0002F923F924F925F926F927F928F929F9277
:1001C000AF92BF92CF92DF92EF92FF920F931F9365
:1001D000CF93DF93CDB7DEB724970FB6F894DEBF89
:1001E0000FBECDBF9A8389837C836B8306E011E0C9
:1001F00062E070E0C8010E9421041C0162E070E02E
:10020000C8010E9421042C0162E070E0C8010E9434
:1002100021043C0162E070E0C8010E9421044C010D
:1002200062E070E0C8010E9421045C0162E070E0BD
:10023000C8010E9421046C0162E070E0C8010E94C4
:1002400021047C0162E070E0C8010E9421048C015D
:100250006B817C810E94D800F70111830083F60135
:10026000F182E082F501D182C082F401B182A082E4
:10027000F30191828082F20171826082F1015182E8
:100280004082E981FA813182208224960FB6F89467
:10029000DEBF0FBECDBFDF91CF911F910F91FF90B9
:1002A000EF90DF90CF90BF90AF909F908F907F9016
:1002B0006F905F904F903F902F900895AF92BF92B4
:1002C000CF92DF92EF92FF920F931F93CF93DF9322
:1002D000CDB7DEB724970FB6F894DEBF0FBECDBF03
:1002E0008FEF8ABB87BB8BBB88BB109290008FE2DD
:1002F00089B986E8809395001BB88AB188618AB96C
:1003000062E070E086E091E00E9421047C0162E0FE
:1003100070E086E091E00E9421048C0160E070E0D2
:100320000E94D800F7011183008393E0A92EB12C1D
:10033000AC0EBD1E82E0C82ED12CCC0EDD1E18BA2C
:1003400002E010E09501A601BE016F5F7F4FC7017B
:100350000E94C500AC012FEF3FEF21503040E9F77C
:1003600084E088BB4230510551F78FEF9FEF019732
:10037000F1F781E088BB809100018F5F80930001DD
:10038000815080958BBB8C815D9BFECF8CB98B811E
:100390005D9BFECF8CB91C821B8284E088BBCFCFD3
:1003A0008FEF87BB18BA8FEF9FEF0197F1F70E948D
:1003B0005E010C94DB010C94D6021FB6FF93EF9301
:1003C000DF93CF93BF93AF939F938F937F936F935D
:1003D0005F934F933F932F931F930F93FF92EF924F
:1003E000DF92CF92BF92AF929F928F927F926F9245
:1003F0005F924F923F922F920F921F921124B92F2A
:10040000A82F9EB78DB701968D939C93972F862F1B
:1004100001979EBF8DBF1F900F902F903F904F90E0
:100420005F906F907F908F909F90AF90BF90CF9094
:10043000DF90EF90FF900F911F912F913F914F917F
:100440005F916F917F918F919F91AF91BF91CF916C
:10045000DF91EF91FF911FBE112408956F5F7F4FD1
:1004600009F008950197E9F70E94670508956FEF75
:100470007FEF81E090E00E942E020895CF93DF93FA
:10048000CDB7DEB722970FB6F894DEBF0FBECDBF53
:100490006F5F7F4F81F4019771F460E072E0CE01ED
:1004A00001960E94F50C69817A8140E052E086E075
:1004B00091E00E947B0322960FB6F894DEBF0FBE38
:1004C000CDBFDF91CF9108956FEF7FEF81E090E096
:1004D0000E943E0208956F5F7F4F09F008950197D3
:1004E000E9F78AE090E090931101809310019093D6
:1004F0000F0180930E0110920701109206011092D5
:1005000009011092080110920B0110920A01109239
:100510000D0110920C0108956FEF7FEF81E090E0E4
:100520000E946B020895CF93DF93CDB7DEB7229779
:100530000FB6F894DEBF0FBECDBF0E9473040E94B9
:10054000D902FC0186A9882321F489E790E095ABC4
:1005500084AB60ED77E0CE0101960E94F50C6981D5
:100560007A8140ED57E083E191E00E947B030E9495
:10057000AA040E94C20422960FB6F894DEBF0FBEF2
:10058000CDBFDF91CF9108956F5F7F4F09F0089540
:100590000197E9F782E191E00E94930208956FEFDD
:1005A0007FEF81E090E00E94C40208950E94600AFB
:1005B000FFCF809101019091020108956F5F7F4FFD
:1005C00009F008950197E9F7109243011092420152
:1005D000109290008FE289B986E88093440180935D
:1005E00095001BB8EAE0F0E080A1886180A310923A
:1005F00041011092400110923F0110923E018AE0A9
:1006000090E090931E0180931D0190931C018093B4
:100610001B011092140110921301109216011092F6
:100620001501109218011092170110921A011092E0
:10063000190108956FEF7FEF81E090E00E94DE02E4
:10064000089585B7837E85BF88950895CF93DF93FE
:10065000EC01AB018A819B816C817D81288139818C
:1006600021303105C1F0FA01A481B581109769F1FB
:10067000FA01868197810097A9F0FD01978386830F
:10068000FA0186819781FC01B583A4832150304013
:10069000398328832CC01B821A821D821C821982F6
:1006A000188225C02115310511F12130310599F34A
:1006B000FB01A481B581BD83AC83FD011782168245
:1006C000215030403983288312C02115310579F03B
:1006D0002130310501F3FC01A681B781BB83AA83D8
:1006E000FD01158214822150304039832883CA01CC
:1006F000DF91CF9108950F931F93CF93DF93DC0188
:100700008B016115710509F48FC04830510508F45B
:100710008BC0FB01718360835383428315821482F3
:1007200017821682FC0186819781840F951F97831B
:100730008683FB0122813381260F371FFD01C28191
:10074000D381209709F443C08881998128173907FC
:10075000F1F1BE01FB01668177816115710531F010
:10076000FB018081918128173907A1F7F8014081A9
:100770005181209731F431C00E80DF81C02D209748
:1007800061F1888199812A813B81820F931F4817EB
:10079000590791F76115710571F0F8018281938114
:1007A000FB0122813381820F931FF801938382839F
:1007B000CD010E9426032097B9F18A819B81F8011F
:1007C00022813381820F931F9B838A832DC0BE01B8
:1007D000F801408151812097A1F6FD0124813581E6
:1007E0008D919C911197009779F4F80115821482EC
:1007F00017821682FD0113830283158304830196F9
:1008000011969C938E93C6CFF90117830683F80146
:100810003583248317821682FD0115830483019694
:1008200011969C938E93B6CFDF91CF911F910F912C
:100830000895FB01329740815181BF010E947B03E3
:1008400008950F931F93CF93DF93FC0161157105FA
:1008500019F421C06F5F7F4F60FDFCCF8B010E5FED
:100860001F4F0830110580F1C281D381209781F09C
:100870009801285F3F4F8A819B818217930770F40C
:100880008017910759F00E80DF81C02D209799F7CE
:10089000CF010E94210380E090E020C0801B910BDB
:1008A0009B838A8386819781801B910B97838683A4
:1008B0008A819B81009759F0E881F981E80FF91F3F
:1008C00001931193CF010AC008E010E0CDCFBE0123
:1008D000CF010E9426038A819B81EECFDF91CF91C9
:1008E0001F910F91089585B7806285BF0E947B0498
:1008F0000E949C040895CF93DF93CDB7DEB7229773
:100900000FB6F894DEBF0FBECDBF0E94D90288E9B2
:1009100091E09A83898360E070E1681B790BCE01D6
:1009200001960E94EF0B22960FB6F894DEBF0FBE21
:10093000CDBFDF91CF91089585E08EBD10929301D8
:1009400010929401109295011092960187B78460DD
:1009500087BF08950E94D90229E730E0FC0135AB3A
:1009600024AB19BE17BE10927D006F988AB18F71AB
:100970008AB9EAE9F0E080818F71808337984798DF
:10098000E39808950E944D060E94C70408950E94AE
:10099000D9020895BC018930910568F429B76150E6
:1009A000704081E090E002C0880F991F6A95E2F7DD
:1009B000282B29BF089581319105B8F08831910520
:1009C00019F18931910530F58431910509F457C049
:1009D0008531910508F43DC08631910509F461C067
:1009E000479708F45CC0479A089547B720E130E084
:1009F000281B390B81E090E002C0880F991F2A95CF
:100A0000E2F7482B47BF089580917D008160809375
:100A10007D0008958C31910561F18D31910570F063
:100A20008E31910509F43FC08E31910550F18F311F
:100A3000910509F446C08097B1F008958A31910577
:100A4000D1F14B9730F180917D00886080937D00DB
:100A500008958231910569F183319105C0F4419780
:100A600061F76F9A089580919A00806480939A004C
:100A7000089580917D00826080937D000895569A4C
:100A8000089580917D00846080937D000895559A3B
:100A9000089580917D00806280937D000895379A4B
:100AA0000895E39A089580919A00806880939A004F
:100AB0000895579A089580917D00806180937D000C
:100AC000089580919A00806280939A0008959F9281
:100AD000AF92BF92CF92DF92EF92FF920F931F934C
:100AE000CF93DF93CDB7DEB72C970FB6F894DEBF68
:100AF0000FBECDBF0E94D902FC0104A915A918861A
:100B00001F8283E1A82E81E0B82E62E170E0C5016A
:100B10000E9421047C0182E090E0F70195838483A8
:100B20001782168211861086D7011A96F386E286FE
:100B30008F8198859E838D838D819E81FD01938316
:100B400082831582148217821682F89460E071E025
:100B5000C5010E942104AC01D7018D939C9385E2CD
:100B60009BE0D82ECC24892F9927C82AD92A425015
:100B70005F4FFA01D182C0824E5F5040DA01A45229
:100B8000BF4FF0E89F2E9C92902F8827212F33276C
:100B9000822B932BFD0191A380A3448F852F99274E
:100BA000858FF701B383A2831C870B8740E051E058
:100BB000BE01655F7F4FC7010E9488098FEF9FE7E5
:100BC0009C838B8362E170E0C5010E9421048C014B
:100BD00081E090E0F8019583848317821682118664
:100BE0001086D8011A96138702878B819C819A837D
:100BF000898389819A81FD0193838283158214827E
:100C000017821682F89460E071E0C5010E94210409
:100C1000BC01D8018D939C9362507F4FFB01D18220
:100C2000C0826E5F70404DE35AE0DB01A452BF4FBB
:100C30009C92942F8827252F3327822B932BFD01FD
:100C400091A380A3648F872F9927858FF801B383A1
:100C5000A2835A87498740E051E0BE01675F7F4F1A
:100C6000C8010E94880981E080932F01F7018281E9
:100C700093810E94AA0B2C960FB6F894DEBF0FBE8C
:100C8000CDBFDF91CF911F910F91FF90EF90DF903B
:100C9000CF90BF90AF909F9008950F931F9361E006
:100CA00070E083E191E00E9421048C0110928700A2
:100CB00081E0809386008DE080938A008EE797E044
:100CC00090937A01809379018AE190E00E94CA04AE
:100CD000EDE7F0E080818061808310932A0100932A
:100CE000290180E090E01F910F9108956F5F7F4F81
:100CF00009F008950197E9F710922C0110922B0149
:100D000010922E0110922D011092200110921F01BD
:100D100010922201109221011092240110922301BD
:100D200008956FEF7FEF81E090E00E9476060895CE
:100D30000F931F93CF93DF938C01FB01EA01798717
:100D40006887E9017F836E835783468331872087D5
:100D5000F80180819181019691838083DF91CF9109
:100D60001F910F910895AF92BF92CF92DF92EF92B1
:100D7000FF920F931F93CF93DF938C01EB01FC0144
:100D8000608171816115710509F46AC0FC01C2803E
:100D9000D3802A813B814C815D81F60182819381E0
:100DA000A481B581281739074A075B0708F43FC0BB
:100DB000F601808591850097D1F15C018281938154
:100DC000A481B581281B390B4A0B5B0B2A833B831B
:100DD0004C835D837501F50182819381A481B58186
:100DE000281739074A075B0740F1F501A084B18451
:100DF000A114B10439F7281739074A075B0710F522
:100E0000F701A680B780A114B10409F445C0821B84
:100E1000930BA40BB50BF70182839383A483B58353
:100E20009701A501BE01C8010E9498065CC0760129
:100E3000F60182819381A481B581281739074A0779
:100E40005B07F0F2281B390B4A0B5B0B2A833B83B1
:100E50004C835D83F801A481B5816115710569F446
:100E60001F821E8219861886D383C283D583C483CA
:100E700061E070E07183608336C0FD01D187C08777
:100E8000BF83AE8319861886F801D583C4836F5F4C
:100E90007F4F7183608327C0821B930BA40BB50B1C
:100EA00082839383A483B5836115710579F01F82D2
:100EB0001E82D986C886F601D783C683F801D383FC
:100EC000C2836F5F7F4F718360830DC01F821E825C
:100ED00019861886F801D383C283D583C48361E061
:100EE00070E071836083DF91CF911F910F91FF902C
:100EF000EF90DF90CF90BF90AF900895CF93DF93A6
:100F0000F8948091250190912601A0912701B0913C
:100F100028010196A11DB11D809325019093260102
:100F2000A0932701B093280120911F013091200147
:100F300021153105A1F04091210150912201EA01D2
:100F40008A819B81AC81BD810197A109B109FA0118
:100F500082839383A483B583181619068CF4C0E0AA
:100F6000D0E07894209709F447C0EC81FD81A081FE
:100F7000B181ED012C813D81CF01F90109953CC082
:100F80002130310561F1EA01E885F985F09322010C
:100F9000E0932101178216822150304030932001C6
:100FA00020931F01FA01C081D1818E819F81FFEFC3
:100FB0008F3F9F0719F001979F838E83892B89F2BA
:100FC00088819981AA81BB81FA0182839383A4835A
:100FD000B583BA018FE191E00E94B306C2CF1092AF
:100FE00022011092210110922401109223011092EB
:100FF000200110921F01D6CFDF91CF9108956F5F2E
:101000007F4F09F008950197E9F710923B01109284
:101010003A0110923D0110923C0110923101109260
:10102000300110923301109232011092350110926A
:101030003401109237011092360108956FEF7FEF5F
:1010400081E090E00E94FF0708950F931F93CF93D4
:10105000DF938C01FB01EA017F836E83E9017D83CD
:101060006C835583448337832683F8018081918183
:10107000019691838083DF91CF911F910F91089505
:10108000CF93DF93EC01AB018A819B816C817D81E1
:101090002881398121303105C1F0FA01A481B5815F
:1010A000109769F1FA01868197810097A9F0FD01F7
:1010B00097838683FA0186819781FC01B583A48397
:1010C00021503040398328832CC01B821A821D8214
:1010D0001C821982188225C02115310511F1213099
:1010E000310599F3FB01A481B581BD83AC83FD017A
:1010F00017821682215030403983288312C021156F
:10110000310579F02130310501F3FC01A681B78169
:10111000BB83AA83FD01158214822150304039839C
:101120002883CA01DF91CF910895EF92FF920F9328
:101130001F93CF93DF937C01DB01EC016881798100
:101140006115710509F445C0EC010A811B81F801A4
:1011500022813381ED018A819B81821793074CF1B3
:10116000E8018E819F81009721F1FC01AF0122816E
:101170003381ED018A819B8182179307DCF0068021
:10118000F781E02D309791F7EA012A813B81FD013B
:101190008281938182179307B4F4EA018C819D8147
:1011A0000097A1F19A01AC01BD01C7010E94250879
:1011B0004EC0A801EA012A813B81FD018281938111
:1011C0008217930754F3E701EC81FD8161157105E6
:1011D00071F4FD011582148217821682BB83AA83E3
:1011E000BD83AC8361E070E07983688330C0B783EE
:1011F000A683ED01FD83EC831F821E82F701B58378
:10120000A4836F5F7F4F7183608321C06115710577
:1012100081F0FD011582148217830683E801BD83E6
:10122000AC83F701B383A2836F5F7F4F71836083C9
:101230000EC0FD011582148217821682E701BB835E
:10124000AA83BD83AC8361E070E079836883DF911A
:10125000CF911F910F91FF90EF900895CF93DF935F
:10126000882309F451C0E0913601F0913701C08123
:10127000D181809136019091370180913001909118
:101280003101892BC9F4E0913601F09137010190C9
:10129000F081E02DCE17DF07B9F18C819D81029797
:1012A00071F182E090E09583848362817381CE0145
:1012B00002960E94DD0128C06091360170913701CD
:1012C00080E391E00E9440086091360170913701FF
:1012D00080E391E00E949508809132019091330162
:1012E0009093370180933601E0913601F0913701F8
:1012F0000190F081E02DCE17DF0779F605C081E07F
:1013000090E09D838C83CDCF7894DF91CF91089529
:10131000CF93DF93EC018A819B818091380190917A
:1013200039010196909339018093380180913601FB
:1013300090913701BE01665F7F4F80E391E00E948C
:1013400095088091360190913701892BA1F18C810C
:101350009D810197C9F18C819D810297A9F18091AE
:101360003601909137016A857B85C0913201D09119
:101370003301209731F428C00E80DF81C02D2097E3
:1013800019F18881998168177907B1F7BE0180E367
:1013900091E00E94400880913601909137018C17AE
:1013A0009D0791F480913201909133019093370120
:1013B0008093360109C0809132019091330190935E
:1013C000370180933601C3CF81E00E942E09DF915F
:1013D000CF9108950F931F93CF93DF93F89480914B
:1013E000360190913701E0913601F0913701C081CB
:1013F000D181809136019091370180913001909197
:1014000031010297B0F00091360110913701B80117
:1014100080E391E00E944008809132019091330175
:101420009093370180933601B80180E391E00E94E8
:101430009508E0913601F09137010190F081E02D9F
:10144000CE17DF07A1F08C819D81029759F082E0D1
:1014500090E09583848362817381CE0102960E941D
:10146000DD0105C081E090E09D838C83F0CF78940E
:10147000DF91CF911F910F910895409138015091C4
:10148000390120913001309131014115510519F494
:10149000F8940C94000085B7837E85BF8895223030
:1014A000310598F30E94EA094091380150913901C1
:1014B00020913001309131014115510561F7E8CF9C
:1014C000EF92FF920F931F93CF93DF937C01F894D9
:1014D0008091360190913701E0913601F09137010A
:1014E000008111818091360190913701E8012A85B0
:1014F0003B85C0913201D0913301209731F417C060
:101500000E80DF81C02D209791F088819981281766
:101510003907B1F7BE0180E391E00E944008809155
:101520003601909137018C179D0709F474C0D801DA
:10153000ED91FC91F182E08285E090E0E8019D83ED
:101540008C838091380190913901019790933901F2
:101550008093380188859985892BE1F0E885F985A4
:1015600081E090E095838483688579858091360158
:1015700090913701665F7F4F80E391E00E9495086C
:101580008091360190913701892B09F44DC0F80103
:10159000118610868091360190913701809130013B
:1015A00090913101892BC1F0609136017091370122
:1015B00080E391E00E94400860913601709137010C
:1015C00080E391E00E94950880913201909133016F
:1015D0009093370180933601E0913601F091370105
:1015E0000190F081E02D0E171F0739F1E8018C8181
:1015F0009D81029759F082E090E095838483628117
:101600007381C80102960E94DD0117C081E090E05D
:101610009D838C83F0CF8091320190913301909320
:1016200037018093360183CF80913201909133014D
:101630009093370180933601AACF7894DF91CF91B0
:101640001F910F91FF90EF900895882F992F0E947E
:10165000600A08956F5F7F4F09F00895813091050A
:10166000F1F0892BD1F78091420190914301892BB0
:1016700051F5E0E7F0E010A2809142019091430122
:10168000892B41F5E9E0F0E010A2809142019091B0
:101690004301892BD9F4EAE0F0E010A208951092FA
:1016A000430110924201109290008FE289B986E8BE
:1016B00080934401809395001BB8EAE0F0E080A19C
:1016C000886180A30895E8E7F0E0D5CFEAE7F0E08D
:1016D00010A20895E9E7F0E0D7CF6FEF7FEF80E049
:1016E00090E00E942A0B08956FEF7FEF81E090E079
:1016F0000E942A0B0895E82FFF27E7FDF095E332BB
:10170000F10550F4EE0FFF1FEB5BFE4F0190F081EF
:10171000E02D309709F009950895CF93DF93CDB769
:10172000DEB722970FB6F894DEBF0FBECDBF80E0C4
:1017300090E19A83898360E071E0CE0101960E9476
:10174000EF0B22960FB6F894DEBF0FBECDBFDF9130
:10175000CF91089501979EBF8DBF1F900F902F903E
:101760003F904F905F906F907F908F909F90AF9041
:10177000BF90CF90DF90EF90FF900F911F912F912E
:101780003F914F915F916F917F918F919F91AF9119
:10179000BF91CF91DF91EF91FF911FBE112408956A
:1017A00008956F5F7F4F09F008950197E9F7109250
:1017B0008C0110928B0110928E0110928D0110926B
:1017C000900110928F011092920110929101089550
:1017D0006FEF7FEF81E090E00E94D10B0895EF92D0
:1017E000FF920F931F93CF93DF93FC010081118130
:1017F0000115110509F4F2C06115710509F4EEC077
:10180000F8011183008373836283158214828091AF
:10181000910190919201860F971F9093920180936E
:101820009101628173819801260F371F40918D01CC
:1018300050918E014115510509F480C0FA01808153
:1018400091812817390709F479C0EA010C80DD81FC
:10185000C02D209729F08881998182179307B1F7CD
:10186000F801E080F1804115510509F465C0FA01E5
:101870008081918122813381820F931FE816F906BE
:1018800009F45AC0DA01FD01A481B581109759F01D
:10189000FD01828193812D913C911197820F931FBD
:1018A000E816F90681F72097C9F18A819B81860F96
:1018B000971FF8019383828320918B0130918C01D3
:1018C00021303105E9F14C175D0709F476C0411567
:1018D0005105B1F0FA0184819581009749F40BC05C
:1018E000AC01009769F0FC0184819581009719F0A3
:1018F000C817D907A9F78C819D81FA019583848344
:1019000080918F0190919001C817D90709F450C0B8
:101910002150304030938C0120938B011097E9F0D7
:10192000FD0182819381F80122813381820F931F0F
:10193000FD019383828352C0DA01B5CFEA0190CFD3
:1019400010928E0110928D011092900110928F01D1
:1019500010928C0110928B01E1CF80918B019091BC
:101960008C01009799F0E0918F01F091900115831F
:101970000483F801158214821093900100938F0163
:10198000019690938C0180938B0128C0F8011582F9
:10199000148210938E0100938D0110939001009397
:1019A0008F0121E030E030938C0120938B0116C031
:1019B0005093900140938F01ABCF2115310509F46D
:1019C000ADCF8C819D8190938E0180938D012150AC
:1019D000304030938C0120938B01A0CFDF91CF91C9
:1019E0001F910F91FF90EF9008950F931F93CF9346
:1019F000DF938C01EC01198218826115710509F4DD
:101A000089C0E0918D01F0918E01DF01309709F4DA
:101A100081C0228133812617370730F40480F58195
:101A2000E02D3097B1F776C0261B370B3383228326
:101A30008091910190919201861B970B9093920156
:101A4000809391012281338121153105A9F54091BF
:101A50008B0150918C0141305105B1F1BD01AE17A0
:101A6000BF0709F440C01097C1F0ED01AC81BD8102
:101A7000109771F0AE17BF0759F0BD01109769F0CC
:101A8000ED01AC81BD81109719F0EA17FB07A9F7AA
:101A9000A481B581EB01BD83AC8380918F019091CE
:101AA00090018E179F0789F14150504050938C014F
:101AB00040938B012281338180819181820F931F1A
:101AC000F8019183808326C010928E0110928D01BF
:101AD0001092900110928F0110928C0110928B0144
:101AE00022813381E9CF4115510531F3A481B581BC
:101AF000B0938E01A0938D014150504050938C01C2
:101B000040938B0122813381D7CF709390016093F2
:101B10008F01CACFC801DF91CF911F910F91089516
:101B20001F920F920FB60F9211248F939F93AF9332
:101B3000BF938091930190919401A0919501B091F0
:101B400096010196A11DB11D80939301909394017C
:101B5000A0939501B0939601BF91AF919F918F9102
:101B60000F900FBE0F901F901895EE0FFF1F05905E
:101B7000F491E02D099410E0C0EAD0E004C0FE0129
:0C1B80000E94B70D2296C23AD107C9F7A7
:041B8C000100100044
:00000001FF
