:100000000C9450000E947C000E947C000E947C00A6
:100010000E947C000E947C000E947C000E947C0068
:100020000E947C000E947C000E947C000E947C0058
:100030000E947C000E947C000E94FB0F0E947C00BA
:100040000E947C000E947C000E947C000E947C0038
:100050000E947C000E947C000E947C000E947C0028
:100060000E947C000E947C000E947C000E947C0018
:100070000E947C000E947C000E947C000E947C0008
:100080000E947C000E947C000E947C0031025E0283
:100090008602C902160385067409DF0D530ED80DBA
:1000A00011241FBECFEFD0E1DEBFCDBF11E0A0E035
:1000B000B1E0E6EAF0E200E00BBF02C007900D926B
:1000C000A836B107D9F711E0A8E6B1E001C01D924A
:1000D000A93FB107E1F710E0CEE9D0E004C02297D4
:1000E000FE010E944410CC38D107C9F70C94B0002F
:1000F0000E94F80D0E94B0001F920F920FB60F924F
:100100008F93CF93DF93DEB7CDB788851A8018869B
:1001100019801F822296DEBFCDBF11242F933F93FB
:100120004F935F936F937F939F93AF93BF93EF939F
:10013000FF93869581500E94E60DFF91EF91BF914C
:10014000AF919F917F916F915F914F913F912F91CF
:100150008F910F900FBE0F901F90DF91CF91189548
:100160001FEF17BB18BB80E492E4AFE0B0E0898BCF
:100170009A8BAB8BBC8BCE0141960E94FE081092ED
:1001800090009FE2F92EF9B806E8009395001BB89D
:100190008AB188618AB911BB63E070E088E691E0BA
:1001A0000E9415046C0181E090E0F6019183808348
:1001B00010929800F0929900028380819181892B9E
:1001C00009F04AC0E5E7F0E086E880A3F601808107
:1001D0009181892B09F0E2C0EBE0F0E010A2F6017A
:1001E000208131812115310509F0D2C0EAE0F0E02B
:1001F00080A18861232B09F0CEC0EAE0F0E080A363
:100200008FEF87BB80E492E4AFE0B0E089879A8704
:10021000AB87BC87CE0109960E94FE0881E088BBAF
:100220008FEF9FEF0197F1F780912D01882309F15E
:10023000AEE2B1E0FD0131979081F601208131817C
:1002400005C0EBE0F0E080A185FD09C02115310576
:10025000C1F3EBE7F0E0F7CFEDE7F0E0B5CF232B0C
:1002600009F0A2C0ECE0F0E090A3FD018D9188239D
:1002700019F780E492E4AFE0B0E08D839E83AF8312
:10028000B887CE0105960E94FE0884E088BB809165
:1002900000018823F1F0A1E0B1E0FD0131979081E8
:1002A000F6012081318105C0EBE0F0E080A185FD01
:1002B00006C021153105C1F3EBE7F0E0F7CF232BA2
:1002C00009F06FC0ECE0F0E090A3FD018D91882370
:1002D00031F780E4E82E82E4F82E8FE0082F112D0C
:1002E000E982FA820B831C83CE0101960E94FE08EC
:1002F00018BAED86FE860F87188BCE010D960E94E8
:10030000FE088FEF88BB90912101992309F1A2E2A9
:10031000B1E0FD0131979081F6012081318105C066
:10032000EBE0F0E080A185FD08C021153105C1F3A7
:10033000EBE7F0E080A185FFF8CF232B19F5ECE087
:10034000F0E090A3FD018D91882329F79091210180
:10035000F6012081318105C0EBE0F0E080A187FD4E
:1003600008C021153105C1F3EBE7F0E080A187FF5C
:10037000F8CF232B51F4ECE0F0E080A15D9BFECFA1
:100380008CB9C3CFECE7F0E0DCCFECE7F0E0F5CFE1
:10039000EAE7F0E02DCFEAE7F0E031CFEBE7F0E07D
:1003A0001DCFECE7F0E090CFECE7F0E05DCF1FB6BB
:1003B000FF93EF93DF93CF93BF93AF939F938F936D
:1003C0007F936F935F934F933F932F931F930F935D
:1003D000FF92EF92DF92CF92BF92AF929F928F9255
:1003E0007F926F925F924F923F922F920F921F9245
:1003F0001124B92FA82F9EB78DB701968D939C938A
:10040000972F862F01979EBF8DBF1F900F902F9023
:100410003F904F905F906F907F908F909F90AF90A4
:10042000BF90CF90DF90EF90FF900F911F912F9191
:100430003F914F915F916F917F918F919F91AF917C
:10044000BF91CF91DF91EF91FF911FBE11240895CD
:100450006F5F7F4F09F008950197E9F70E945B05F0
:1004600008956FEF7FEF81E090E00E9428020895E9
:10047000CF93DF93CDB7DEB722970FB6F894DEBFE8
:100480000FBECDBF6F5F7F4F81F4019771F460E0C5
:1004900072E0CE0101960E94600F69817A8140E08E
:1004A00052E088E691E00E94770322960FB6F89416
:1004B000DEBF0FBECDBFDF91CF9108956FEF7FEF0D
:1004C00081E090E00E94380208956F5F7F4F09F04D
:1004D00008950197E9F78AE090E090937301809383
:1004E00072019093710180937001109269011092D2
:1004F000680110926B0110926A0110926D011092C6
:100500006C0110926F0110926E0108956FEF7FEFF2
:1005100081E090E00E9465020895CF93DF93CDB70C
:10052000DEB722970FB6F894DEBF0FBECDBF0E9494
:1005300067040E94D002FC0186A9882321F488E781
:1005400090E095AB84AB60ED77E0CE0101960E9420
:10055000600F69817A8140ED57E085E791E00E9464
:1005600077030E949E040E94B60422960FB6F89468
:10057000DEBF0FBECDBFDF91CF9108956F5F7F4F7C
:1005800009F008950197E9F784E791E00E948D0250
:1005900008956FEF7FEF81E090E00E94BE02089522
:1005A0008091520190915301089585B7837E85BF54
:1005B000889508956F5F7F4F09F008950197E9F7D7
:1005C0001092A5011092A401109290008FE289B9B7
:1005D00086E88093A601809395001BB8EAE0F0E0DE
:1005E00080A1886180A31092A3011092A2011092B1
:1005F000A1011092A0018AE090E090938001809385
:100600007F0190937E0180937D011092760110927C
:100610007501109278011092770110927A01109270
:10062000790110927C0110927B0108956FEF7FEFAA
:1006300081E090E00E94DA02089585B7837E85BF4D
:1006400088950895CF93DF93EC01AB018A819B815C
:100650006C817D812881398121303105C1F0FA0119
:10066000A481B581109769F1FA018681978100977D
:10067000A9F0FD0197838683FA0186819781FC01A9
:10068000B583A48321503040398328832CC01B823A
:100690001A821D821C821982188225C021153105FB
:1006A00011F12130310599F3FB01A481B581BD839E
:1006B000AC83FD0117821682215030403983288394
:1006C00012C02115310579F02130310501F3FC010B
:1006D000A681B781BB83AA83FD01158214822150B4
:1006E000304039832883CA01DF91CF9108950F9359
:1006F0001F93CF93DF93DC018B016115710509F422
:100700008FC04830510508F48BC0FB0171836083B2
:10071000538342831582148217821682FC018681DC
:100720009781840F951F97838683FB0122813381F4
:10073000260F371FFD01C281D381209709F443C0E2
:100740008881998128173907F1F1BE01FB01668183
:1007500077816115710531F0FB0180819181281746
:100760003907A1F7F80140815181209731F431C058
:100770000E80DF81C02D209761F1888199812A81C7
:100780003B81820F931F4817590791F76115710537
:1007900071F0F80182819381FB0122813381820F04
:1007A000931FF80193838283CD010E942203209737
:1007B000B9F18A819B81F80122813381820F931FD5
:1007C0009B838A832DC0BE01F8014081518120970F
:1007D000A1F6FD01248135818D919C91119700979F
:1007E00079F4F8011582148217821682FD011383B1
:1007F000028315830483019611969C938E93C6CF32
:10080000F90117830683F801358324831782168242
:10081000FD0115830483019611969C938E93B6CFA8
:10082000DF91CF911F910F9108950F931F93CF9355
:10083000DF93FC016115710519F421C06F5F7F4FD3
:1008400060FDFCCF8B010E5F1F4F0830110580F15A
:10085000C281D381209781F09801285F3F4F8A8120
:100860009B818217930770F48017910759F00E80CF
:10087000DF81C02D209799F7CF010E941D0380E0F2
:1008800090E020C0801B910B9B838A838681978197
:10089000801B910B978386838A819B81009759F0F7
:1008A000E881F981E80FF91F01931193CF010AC084
:1008B00008E010E0CDCFBE01CF010E9422038A8163
:1008C0009B81EECFDF91CF911F910F91089585B756
:1008D000806285BF0E946F040E9490040895CF93A8
:1008E000DF93CDB7DEB722970FB6F894DEBF0FBE09
:1008F000CDBF0E94D0028AEF91E09A83898360E0A5
:1009000070E1681B790BCE0101960E945A0E229667
:100910000FB6F894DEBF0FBECDBFDF91CF91089523
:1009200085E08EBD1092F5011092F6011092F7014C
:100930001092F80187B7846087BF08950E94D002A3
:1009400028E730E0FC0135AB24AB19BE17BE10928E
:100950007D006F988AB18F718AB9EAE9F0E08081F1
:100960008F71808337984798E39808950E944106D5
:100970000E94BB0408950E94D0020895BC018930F2
:10098000910568F429B76150704081E090E002C0A1
:10099000880F991F6A95E2F7282B29BF08958131A6
:1009A0009105B8F08831910519F18931910530F53B
:1009B0008431910509F457C08531910508F43DC093
:1009C0008631910509F461C0479708F45CC0479AE5
:1009D000089547B720E130E0281B390B81E090E013
:1009E00002C0880F991F2A95E2F7482B47BF089548
:1009F00080917D00816080937D0008958C31910508
:100A000061F18D31910570F08E31910509F43FC08F
:100A10008E31910550F18F31910509F446C08097D0
:100A2000B1F008958A319105D1F14B9730F1809161
:100A30007D00886080937D0008958231910569F181
:100A400083319105C0F4419761F76F9A08958091C1
:100A50009A00806480939A00089580917D0082605E
:100A600080937D000895569A089580917D0084605A
:100A700080937D000895559A089580917D0080624D
:100A800080937D000895379A0895E39A08958091A0
:100A90009A00806880939A000895579A08958091EB
:100AA0007D00806180937D00089580919A0080622E
:100AB00080939A0008959F92AF92BF92CF92DF9257
:100AC000EF92FF920F931F93CF93DF93CDB7DEB7D3
:100AD0002C970FB6F894DEBF0FBECDBF0E94D00298
:100AE000FC0104A915A918861F8285E7A82E81E0BC
:100AF000B82E62E170E0C5010E9415047C0182E01D
:100B000090E0F70195838483178216821186108600
:100B1000D7011A96F386E2868F8198859E838D830E
:100B20008D819E81FD0193838283158214821782B9
:100B30001682F89460E071E0C5010E941504AC01D2
:100B4000D7018D939C9387E19DE0D82ECC24892FEB
:100B50009927C82AD92A42505F4FFA01D182C08210
:100B60004E5F5040DA01A452BF4FF0E89F2E9C9296
:100B7000902F8827212F3327822B932BFD0191A3C0
:100B800080A3448F852F9927858FF701B383A28394
:100B90001C870B8740E051E0BE01655F7F4FC701B6
:100BA0000E942F0B8FEF9FE79C838B8362E170E0A5
:100BB000C5010E9415048C0181E090E0F801958345
:100BC00084831782168211861086D8011A9613879D
:100BD00002878B819C819A83898389819A81FD0117
:100BE000938382831582148217821682F89460E0C0
:100BF00071E0C5010E941504BC01D8018D939C933E
:100C000062507F4FFB01D182C0826E5F70404FE225
:100C10005CE0DB01A452BF4F9C92942F8827252FC4
:100C20003327822B932BFD0191A380A3648F872F01
:100C30009927858FF801B383A2835A87498740E0BB
:100C400051E0BE01675F7F4FC8010E942F0B81E01A
:100C500080939101F701828193810E94150E2C9659
:100C60000FB6F894DEBF0FBECDBFDF91CF911F91BD
:100C70000F91FF90EF90DF90CF90BF90AF909F903B
:100C800008950F931F9361E070E085E791E00E9463
:100C900015048C011092870081E0809386008DE01E
:100CA00080938A008AE298E09093DC018093DB01D4
:100CB0008AE190E00E94BE04EDE7F0E0808180616F
:100CC000808310938C0100938B0180E090E01F9152
:100CD0000F9108956F5F7F4F09F008950197E9F72D
:100CE00010928E0110928D011092900110928F013E
:100CF000109282011092810110928401109283015E
:100D0000109286011092850108956FEF7FEF81E0C8
:100D100090E00E946A060895FC0182E691E09183CA
:100D200080830895FC0182E691E091838083089599
:100D3000FC0182E691E0918380830895FC0182E6C4
:100D400091E09183808308950F931F93CF93DF9356
:100D50008C01FB01EA0179876887E9017F836E8353
:100D60005783468331872087F801808191810196DE
:100D700091838083DF91CF911F910F910895CF933D
:100D8000DF93EC01EA81FB81F894F89426813781A6
:100D900086819781019697838683789437FD02C078
:100DA000789403C0CF010E94910BDF91CF910895F9
:100DB000CF93DF93EC01AB018A819B816C817D81B4
:100DC0002881398121303105C1F0FA01A681B7812E
:100DD000109769F1FA01808591850097A9F0FD01CE
:100DE00091878087FA0180859185FC01B783A6836E
:100DF00021503040398328832CC01B821A821D82E7
:100E00001C821982188225C02115310511F121306B
:100E1000310599F3FB01A681B781BD83AC83FD0148
:100E200011861086215030403983288312C0211545
:100E3000310579F02130310501F3FC01A085B18540
:100E4000BB83AA83FD01178216822150304039836B
:100E50002883CA01DF91CF910895CF93DF939C013E
:100E6000F894C0918301D0918401209731F423C07C
:100E70000884D985C02D2097F1F0888199812817A1
:100E80003907B1F7BE0181E891E00E94D806E885F4
:100E9000F985309781F082819381A481B5812A817F
:100EA0003B814C815D81820F931FA41FB51F8283FC
:100EB0009383A483B5837894DF91CF910895AF9203
:100EC000BF92CF92DF92EF92FF920F931F93CF9337
:100ED000DF938C01EB01FC0160817181611571056B
:100EE00009F46AC0FC01C280D3802A813B814C8115
:100EF0005D81F60182819381A481B581281739072C
:100F00004A075B0708F43FC0F6018085918500978A
:100F1000D1F15C0182819381A481B581281B390BB9
:100F20004A0B5B0B2A833B834C835D837501F50180
:100F300082819381A481B581281739074A075B070D
:100F400040F1F501A084B184A114B10439F7281748
:100F500039074A075B0710F5F701A680B780A1148F
:100F6000B10409F445C0821B930BA40BB50BF70128
:100F700082839383A483B5839701A501BE01C80131
:100F80000E94A4065CC07601F60182819381A4814F
:100F9000B581281739074A075B07F0F2281B390B80
:100FA0004A0B5B0B2A833B834C835D83F801A4814E
:100FB000B5816115710569F41F821E821986188634
:100FC000D383C283D583C48361E070E0718360837F
:100FD00036C0FD01D187C087BF83AE8319861886CE
:100FE000F801D583C4836F5F7F4F7183608327C00F
:100FF000821B930BA40BB50B82839383A483B583CD
:101000006115710579F01F821E82D986C886F601A6
:10101000D783C683F801D383C2836F5F7F4F718309
:1010200060830DC01F821E8219861886F801D38343
:10103000C283D583C48361E070E071836083DF91F4
:10104000CF911F910F91FF90EF90DF90CF90BF90C5
:10105000AF900895CF93DF93F8948091870190919A
:101060008801A0918901B0918A010196A11DB11D4D
:101070008093870190938801A0938901B0938A019E
:10108000209181013091820121153105A1F040911B
:10109000830150918401EA018A819B81AC81BD81E9
:1010A0000197A109B109FA0182839383A483B583CF
:1010B000181619068CF4C0E0D0E07894209709F453
:1010C00047C0EC81FD81A081B181ED012C813D8182
:1010D000CF01F90109953CC02130310561F1EA01E8
:1010E000E885F985F0938401E093830117821682E5
:1010F000215030403093820120938101FA01C08158
:10110000D1818E819F81FFEF8F3F9F0719F001975B
:101110009F838E83892B89F288819981AA81BB81E3
:10112000FA0182839383A483B583BA0181E891E0B5
:101130000E945F07C2CF1092840110928301109227
:101140008601109285011092820110928101D6CF02
:10115000DF91CF910895CF92DF92EF92FF920F939C
:101160001F93CF93DF938C01FB016A0179016081AA
:101170007181828193816B5B7F4F8F4F9F4F2AE8F4
:1011800030E040E050E00E942010D8012D933D93C4
:101190004D935C931397E801DD82CC82FF82EE824F
:1011A000F80138961987088722833383448355834F
:1011B0001782168211861086F89488819981AA81F7
:1011C000BB810097A105B10539F0BF0181E891E02D
:1011D0000E945F07789409C07894D601ED91FC9144
:1011E0000480F581E02DC6010995DF91CF911F9113
:1011F0000F91FF90EF90DF90CF900895EF92FF92C4
:101200000F931F93CF93DF93CDB7DEB76E970FB6D3
:10121000F894DEBF0FBECDBF1E821D8218861F82CE
:101220001A8619861C861B8628E531E03A832983B5
:101230008E010B5F1F4F1C830B832DE0E22EF12CE0
:10124000EC0EFD1E21E030E0AE014F5F5F4FBC01B0
:10125000C7010E94AB08F894F8942B853C858B85D8
:101260009C8501979C878B8778941216130614F43B
:10127000789403C0C8010E941C0DC7010E942D076D
:1012800082E691E09A838983F894C8010E94DE0A7D
:101290006E960FB6F894DEBF0FBECDBFDF91CF9133
:1012A0001F910F91FF90EF9008956F5F7F4F09F0AE
:1012B00008950197E9F710929D0110929C011092F8
:1012C0009F0110929E011092930110929201109230
:1012D000950110929401109297011092960110922C
:1012E00099011092980108956FEF7FEF81E090E0EF
:1012F0000E94550908950F931F93CF93DF938C019C
:10130000FB01EA017F836E83E9017D836C83558352
:10131000448337832683F8018081918101969183EC
:101320008083DF91CF911F910F910895CF93DF9329
:10133000EC01AB018A819B816C817D81288139819F
:1013400021303105C1F0FA01A481B581109769F10E
:10135000FA01868197810097A9F0FD019783868322
:10136000FA0186819781FC01B583A4832150304026
:10137000398328832CC01B821A821D821C82198209
:10138000188225C02115310511F12130310599F35D
:10139000FB01A481B581BD83AC83FD011782168258
:1013A000215030403983288312C02115310579F04E
:1013B0002130310501F3FC01A681B781BB83AA83EB
:1013C000FD01158214822150304039832883CA01DF
:1013D000DF91CF910895EF92FF920F931F93CF93D8
:1013E000DF937C01DB01EC01688179816115710576
:1013F00009F445C0EC010A811B81F8012281338187
:10140000ED018A819B81821793074CF1E8018E815F
:101410009F81009721F1FC01AF0122813381ED0111
:101420008A819B8182179307DCF00680F781E02D8B
:10143000309791F7EA012A813B81FD0182819381F6
:1014400082179307B4F4EA018C819D810097A1F182
:101450009A01AC01BD01C7010E947B094EC0A801E1
:10146000EA012A813B81FD018281938182179307E2
:1014700054F3E701EC81FD816115710571F4FD0103
:101480001582148217821682BB83AA83BD83AC8324
:1014900061E070E07983688330C0B783A683ED0193
:1014A000FD83EC831F821E82F701B583A4836F5FE7
:1014B0007F4F7183608321C06115710581F0FD014B
:1014C0001582148217830683E801BD83AC83F7017C
:1014D000B383A2836F5F7F4F718360830EC0FD0172
:1014E0001582148217821682E701BB83AA83BD830B
:1014F000AC8361E070E079836883DF91CF911F91C5
:101500000F91FF90EF900895CF93DF93882309F414
:1015100051C0E0919801F0919901C081D1818091F1
:101520009801909199018091920190919301892B5A
:10153000C9F4E0919801F09199010190F081E02DBA
:10154000CE17DF07B9F18C819D81029771F182E09E
:1015500090E09583848362817381CE0102960E941C
:10156000D70128C0609198017091990182E991E0BA
:101570000E949609609198017091990182E991E029
:101580000E94EB09809194019091950190939901AB
:1015900080939801E0919801F09199010190F08178
:1015A000E02DCE17DF0779F605C081E090E09D833E
:1015B0008C83CDCF7894DF91CF9108950F931F93B3
:1015C000CF93DF93EC01809198019091990101E014
:1015D00010E0888199810097D1F1AA81BB81813087
:1015E000910571F1FD01268137813B832A83F90141
:1015F00015821482019799838883ED91FC9115835C
:1016000004831782168280919801909199013A96ED
:10161000BF0182E991E00E94EB09809198019091CD
:101620009901892BB1F68091940190919501909345
:1016300099018093980188819981009771F607C07C
:101640001B821A821D821C8219821882D6CF81E0E9
:101650000E94840ADF91CF911F910F910895CF933B
:10166000DF93EC018A819B8180919A0190919B018B
:10167000019690939B0180939A018091980190919B
:101680009901BE01665F7F4F82E991E00E94EB09FC
:101690008091980190919901892BA1F18C819D8174
:1016A0000197C9F18C819D810297A9F180919801E0
:1016B000909199016A857B85C0919401D0919501A3
:1016C000209731F428C00E80DF81C02D209719F1BA
:1016D0008881998168177907B1F7BE0182E991E0A5
:1016E0000E94960980919801909199018C179D070D
:1016F00091F4809194019091950190939901809338
:10170000980109C08091940190919501909399015D
:1017100080939801C3CF81E00E94840ADF91CF912A
:101720000895CF93DF93DC01809198019091990106
:101730008D919C9111970097C9F1FD01C281D381D0
:101740008130910561F12E813F81FD013383228338
:10175000F9011582148201978D939C93E881F98198
:1017600081E090E0958384831782168280919801AE
:10177000909199013A96BF0182E991E00E94EB09AC
:101780008091980190919901892B81F48091940125
:1017900090919501909399018093980107C01382CD
:1017A0001282158214821D921C92D8CF81E00E9471
:1017B000840ADF91CF9108950F931F93CF93DF9306
:1017C000F8948091980190919901E0919801F0919D
:1017D0009901C081D1818091980190919901809166
:1017E0009201909193010297B0F0009198011091AD
:1017F0009901B80182E991E00E94960980919401D3
:10180000909195019093990180939801B80182E994
:1018100091E00E94EB09E0919801F091990101900B
:10182000F081E02DCE17DF07A1F08C819D8102971A
:1018300059F082E090E09583848362817381CE01C8
:1018400002960E94D70105C081E090E09D838C83C1
:10185000F0CF7894DF91CF911F910F91089540912F
:101860009A0150919B012091920130919301411571
:10187000510519F4F8940C94000085B7837E85BF58
:1018800088952230310598F30E94DC0B40919A0133
:1018900050919B0120919201309193014115510586
:1018A00061F7E8CFEF92FF920F931F93CF93DF93EF
:1018B0007C01F8948091980190919901E0919801B0
:1018C000F091990100811181809198019091990185
:1018D000E8012A853B85C0919401D091950120971C
:1018E00031F417C00E80DF81C02D209791F08881E0
:1018F000998128173907B1F7BE0182E991E00E946A
:10190000960980919801909199018C179D0709F48F
:1019100074C0D801ED91FC91F182E08285E090E005
:10192000E8019D838C8380919A0190919B0101979E
:1019300090939B0180939A0188859985892BE1F08A
:10194000E885F98581E090E09583848368857985D1
:101950008091980190919901665F7F4F82E991E0B3
:101960000E94EB098091980190919901892B09F4CB
:101970004DC0F801118610868091980190919901CF
:101980008091920190919301892BC1F0609198010F
:101990007091990182E991E00E9496096091980105
:1019A0007091990182E991E00E94EB098091940184
:1019B000909195019093990180939801E0919801FD
:1019C000F09199010190F081E02D0E171F0739F178
:1019D000E8018C819D81029759F082E090E0958327
:1019E000848362817381C80102960E94D70117C067
:1019F00081E090E09D838C83F0CF80919401909161
:101A00009501909399018093980183CF80919401DF
:101A1000909195019093990180939801AACF789421
:101A2000DF91CF911F910F91FF90EF900895882F34
:101A3000992F0E94520C0895CF92DF92EF92FF925D
:101A40000F931F93CF93DF937C0180919801909126
:101A50009901E0919801F0919901008111818091A3
:101A60009801909199019AE0C92ED12CC00ED11EF7
:101A7000E8012A853B85C0919401D091950120977A
:101A800031F416C00E80DF81C02D209789F0888147
:101A9000998128173907B1F7BE0182E991E00E94C8
:101AA00096098091980190919901C817D90751F131
:101AB00084E090E0F80195838483B601C7010E9419
:101AC000EB09E801FF82EE82E0919801F091990123
:101AD0000190F081E02D0E171F07E9F08C819D81A8
:101AE000029759F082E090E095838483628173814C
:101AF000C80102960E94D7010EC081E090E09D834C
:101B00008C83F0CF809194019091950190939901ED
:101B100080939801CDCF7894DF91CF911F910F9151
:101B2000FF90EF90DF90CF9008956F5F7F4F09F0A7
:101B3000089581309105F1F0892BD1F78091A401AE
:101B40009091A501892B51F5E0E7F0E010A280917A
:101B5000A4019091A501892B41F5E9E0F0E010A2E4
:101B60008091A4019091A501892BD9F4EAE0F0E0DD
:101B700010A208951092A5011092A4011092900055
:101B80008FE289B986E88093A601809395001BB8FF
:101B9000EAE0F0E080A1886180A30895E8E7F0E042
:101BA000D5CFEAE7F0E010A20895E9E7F0E0D7CF5B
:101BB0006FEF7FEF80E090E00E94950D08956FEF4A
:101BC0007FEF81E090E00E94950D0895E82FFF27B8
:101BD000E7FDF095E332F10550F4EE0FFF1FE955F4
:101BE000FE4F0190F081E02D309709F0099508959E
:101BF000CF93DF93CDB7DEB722970FB6F894DEBF51
:101C00000FBECDBF80E090E19A83898360E071E0F0
:101C1000CE0101960E945A0E22960FB6F894DEBFAE
:101C20000FBECDBFDF91CF91089501979EBF8DBFAD
:101C30001F900F902F903F904F905F906F907F90EC
:101C40008F909F90AF90BF90CF90DF90EF90FF90DC
:101C50000F911F912F913F914F915F916F917F91C4
:101C60008F919F91AF91BF91CF91DF91EF91FF91B4
:101C70001FBE1124089508956F5F7F4F09F00895E6
:101C80000197E9F71092EE011092ED011092F00128
:101C90001092EF011092F2011092F1011092F401F2
:101CA0001092F30108956FEF7FEF81E090E00E94C2
:101CB0003C0E0895EF92FF920F931F93CF93DF9303
:101CC000FC01008111810115110509F4F2C06115B3
:101CD000710509F4EEC0F8011183008373836283F8
:101CE000158214828091F3019091F401860F971F61
:101CF0009093F4018093F301628173819801260F20
:101D0000371F4091EF015091F0014115510509F441
:101D100080C0FA01808191812817390709F479C0C0
:101D2000EA010C80DD81C02D209729F088819981FE
:101D300082179307B1F7F801E080F1804115510552
:101D400009F465C0FA018081918122813381820F7B
:101D5000931FE816F90609F45AC0DA01FD01A481BF
:101D6000B581109759F0FD01828193812D913C91AD
:101D70001197820F931FE816F90681F72097C9F192
:101D80008A819B81860F971FF8019383828320911C
:101D9000ED013091EE0121303105E9F14C175D077D
:101DA00009F476C041155105B1F0FA01848195819D
:101DB000009749F40BC0AC01009769F0FC018481E5
:101DC0009581009719F0C817D907A9F78C819D81D3
:101DD000FA01958384838091F1019091F201C817F3
:101DE000D90709F450C0215030403093EE012093C0
:101DF000ED011097E9F0FD0182819381F8012281C4
:101E00003381820F931FFD019383828352C0DA01D5
:101E1000B5CFEA0190CF1092F0011092EF0110922D
:101E2000F2011092F1011092EE011092ED01E1CF5A
:101E30008091ED019091EE01009799F0E091F10110
:101E4000F091F20115830483F80115821482109336
:101E5000F2010093F10101969093EE018093ED0160
:101E600028C0F801158214821093F0010093EF014D
:101E70001093F2010093F10121E030E03093EE0184
:101E80002093ED0116C05093F2014093F101ABCFC6
:101E90002115310509F4ADCF8C819D819093F0011E
:101EA0008093EF01215030403093EE012093ED01FB
:101EB000A0CFDF91CF911F910F91FF90EF900895E8
:101EC0000F931F93CF93DF938C01EC01198218823B
:101ED0006115710509F489C0E091EF01F091F001FD
:101EE000DF01309709F481C022813381261737073B
:101EF00030F40480F581E02D3097B1F776C0261BD1
:101F0000370B338322838091F3019091F401861B78
:101F1000970B9093F4018093F30122813381211573
:101F20003105A9F54091ED015091EE014130510587
:101F3000B1F1BD01AE17BF0709F440C01097C1F061
:101F4000ED01AC81BD81109771F0AE17BF0759F05C
:101F5000BD01109769F0ED01AC81BD81109719F0BA
:101F6000EA17FB07A9F7A481B581EB01BD83AC8318
:101F70008091F1019091F2018E179F0789F14150F4
:101F800050405093EE014093ED01228133818081D6
:101F90009181820F931FF8019183808326C0109254
:101FA000F0011092EF011092F2011092F1011092E3
:101FB000EE011092ED0122813381E9CF41155105E7
:101FC00031F3A481B581B093F001A093EF014150AA
:101FD00050405093EE014093ED0122813381D7CFE1
:101FE0007093F2016093F101CACFC801DF91CF91E4
:101FF0001F910F9108951F920F920FB60F92112407
:102000008F939F93AF93BF938091F5019091F601C9
:10201000A091F701B091F8010196A11DB11D809327
:10202000F5019093F601A093F701B093F801BF91E9
:10203000AF919F918F910F900FBE0F901F901895A9
:10204000A1E21A2EAA1BBB1BFD010DC0AA1FBB1FBC
:10205000EE1FFF1FA217B307E407F50720F0A21B2E
:10206000B30BE40BF50B661F771F881F991F1A949B
:1020700069F760957095809590959B01AC01BD01C5
:10208000CF010895EE0FFF1F0590F491E02D099404
:1020900010E0CEE9D0E004C0FE010E944410229678
:0620A000C03AD107C9F7A8
:1020A60041542D4C53485352563D223230302E3136
:1020B60034322E3133302E313034222C2238302235
:1020C6000041542D4C5348544553543F0041542D20
:1020D6004C534841504E3D227A61702E636F6D2EEF
:1020E6006272222C227669766F222C227669766FAE
:1020F600220000100000000098069E06BF060000A1
:0821060000008C069206D502D0
:00000001FF
