:100000000C9452000E947E000E947E000E947E009E
:100010000E947E000E947E000E947E000E947E0060
:100020000E947E000E947E000E947E000E947E0050
:100030000E947E000E947E000E94CF100E947E00DF
:100040000E947E000E947E000E947E000E947E0030
:100050000E947E000E947E000E947E000E947E0020
:100060000E947E000E947E000E947E000E947E0010
:100070000E947E000E947E000E947E000E947E0000
:100080000E947E000E947E000E947E00E2020F031A
:100090003703BF007A03CA034107300A5B0EAC0E78
:1000A000270FA50E11241FBECFEFD0E1DEBFCDBFBD
:1000B00011E0A0E0B1E0ECE9F2E200E00BBF02C029
:1000C00007900D92A831B107D9F711E0A8E1B1E08E
:1000D00001C01D92AF3AB107E1F710E0C2EAD0E0EB
:1000E00004C02297FE010E943F11CC38D107C9F706
:1000F0000C94C7010E94C50E0E94C7011F920F9267
:100100000FB60F928F93CF93DF93DEB7CDB788856D
:100110001A80188619801F822296DEBFCDBF112457
:100120002F933F934F935F936F937F939F93AF93DF
:10013000BF93EF93FF93869581500E94B30EFF917A
:10014000EF91BF91AF919F917F916F915F914F918F
:100150003F912F918F910F900FBE0F901F90DF91C5
:10016000CF9118956F5F7F4F09F008950197E9F7D8
:100170008AE090E0909319018093180108956FEF41
:100180007FEF81E090E00E94B2000895FFCFFFCFA3
:10019000CF93DF93FC01C081D181209741F0CE0144
:1001A0000E94C800BE018AE191E00E94C904DF916B
:1001B000CF9108952F923F924F925F926F927F92CC
:1001C0008F929F92AF92BF92CF92DF92EF92FF9267
:1001D0000F931F93CF93DF93CDB7DEB724970FB65E
:1001E000F894DEBF0FBECDBF9A8389837C836B8377
:1001F0000AE111E062E070E0C8010E94D1041C0134
:1002000062E070E0C8010E94D1042C0162E070E05D
:10021000C8010E94D1043C0162E070E0C8010E9464
:10022000D1044C0162E070E0C8010E94D1045C017D
:1002300062E070E0C8010E94D1046C0162E070E0ED
:10024000C8010E94D1047C0162E070E0C8010E94F4
:10025000D1048C016B817C810E94DA00F70111834B
:100260000083F601F182E082F501D182C082F401BF
:10027000B182A082F30191828082F2017182608258
:10028000F10151824082E981FA81318220822496F3
:100290000FB6F894DEBF0FBECDBFDF91CF911F9197
:1002A0000F91FF90EF90DF90CF90BF90AF909F9015
:1002B0008F907F906F905F904F903F902F90089518
:1002C000AF92BF92CF92DF92EF92FF920F931F9364
:1002D000CF93DF93CDB7DEB724970FB6F894DEBF88
:1002E0000FBECDBF8FEF8ABB87BB8BBB88BB109285
:1002F00090008FE289B986E8809395001BB88AB197
:1003000088618AB962E070E08AE191E00E94D104DC
:100310007C0162E070E08AE191E00E94D1048C01EE
:1003200060E070E00E94DA00F7011183008393E03F
:10033000A92EB12CAC0EBD1E82E0C82ED12CCC0E45
:10034000DD1E18BA02E010E09501A601BE016F5F44
:100350007F4FC7010E94C70024E028BB029789F79E
:1003600081E088BB809100018F5F80930001815004
:1003700080958BBB8C815D9BFECF8CB98B815D9B07
:10038000FECF8CB91C821B8284E088BBDACF0E942E
:1003900060010C9486028F929F92AF92BF92CF928F
:1003A000DF92EF92FF920F931F93CF93DF93CDB71E
:1003B000DEB727970FB6F894DEBF0FBECDBF62E061
:1003C00070E08AE191E00E94D1047C0180915C019F
:1003D000882331F423E030E030935B0120935A010D
:1003E00081E0F701808387E0818362E070E08AE149
:1003F00091E00E94D1046C0162E070E08AE191E03A
:100400000E94D1048C0160E070E00E94DA00F601E5
:10041000118300838FEF8ABB8BBB64E0862E912C07
:100420008C0E9D1E52E0A52EB12CAC0EBD1E80E49C
:1004300092E4AFE0B0E08C839D83AE83BF83C401C0
:100440000E94BA09159A1D9A80E090E00196FFE09B
:100450008F3F9F07D9F780915C0120915A0130911D
:100460005B012115310599F08823F1F781E0809334
:100470005C01F701808187B9818186B986B1806C82
:1004800086B920E030E010925B0110925A01349B53
:10049000FECF84B1682F772785B19927982F8827B9
:1004A000682B792B2330310571F02230310539F179
:1004B00010925C0186B18F7386B983E090E09093CF
:1004C0005B0180935A011D981598C7010E94E20EA6
:1004D0009B838A83198202E010E09501AE014F5F91
:1004E0005F4F62E571E0C6010E94C6008091000185
:1004F0008F5F80930001815080958BBB98CF23E064
:1005000030E030935B0120935A01DDCF0C948103DE
:100510001FB6FF93EF93DF93CF93BF93AF939F9358
:100520008F937F936F935F934F933F932F931F937B
:100530000F93FF92EF92DF92CF92BF92AF929F9272
:100540008F927F926F925F924F923F922F920F9273
:100550001F921124B92FA82F9EB78DB701968D93A6
:100560009C93972F862F01979EBF8DBF1F900F9052
:100570002F903F904F905F906F907F908F909F90C3
:10058000AF90BF90CF90DF90EF90FF900F911F91B1
:100590002F913F914F915F916F917F918F919F919B
:1005A000AF91BF91CF91DF91EF91FF911FBE1124C9
:1005B00008956F5F7F4F09F008950197E9F70E9452
:1005C000170608956FEF7FEF81E090E00E94D90257
:1005D0000895CF93DF93CDB7DEB722970FB6F89487
:1005E000DEBF0FBECDBF6F5F7F4F81F4019771F407
:1005F00060E072E0CE0101960E94341069817A8138
:1006000040E052E08AE191E00E942B0422960FB66E
:10061000F894DEBF0FBECDBFDF91CF9108956FEF8D
:100620007FEF81E090E00E94E90208956F5F7F4FC5
:1006300009F008950197E9F78AE090E09093250189
:1006400080932401909323018093220110921B0137
:1006500010921A0110921D0110921C0110921F019C
:1006600010921E01109221011092200108956FEF47
:100670007FEF81E090E00E9416030895CF93DF930F
:10068000CDB7DEB722970FB6F894DEBF0FBECDBF51
:100690000E9423050E948403FC0186A9882321F47B
:1006A0008AE790E095AB84AB60ED77E0CE010196F0
:1006B0000E94341069817A8140ED57E087E291E031
:1006C0000E942B040E945A050E94720522960FB6C2
:1006D000F894DEBF0FBECDBFDF91CF9108956F5F5D
:1006E0007F4F09F008950197E9F786E291E00E94B3
:1006F0003E0308956FEF7FEF81E090E00E946F036B
:1007000008950E940E0DFFCF80910101909102018A
:10071000089585B7837E85BF889508956F5F7F4F65
:1007200009F008950197E9F71092580110925701C6
:10073000109290008FE289B986E8809359018093E6
:1007400095001BB8EAE0F0E080A1886180A31092D8
:1007500056011092550110925401109253018AE0F3
:1007600090E0909332018093310190933001809317
:100770002F01109228011092270110922A01109245
:10078000290110922C0110922B0110922E0110922F
:100790002D0108956FEF7FEF81E090E00E948E03BE
:1007A000089585B7837E85BF88950895CF93DF939D
:1007B000EC01AB018A819B816C817D81288139812B
:1007C00021303105C1F0FA01A481B581109769F19A
:1007D000FA01868197810097A9F0FD0197838683AE
:1007E000FA0186819781FC01B583A48321503040B2
:1007F000398328832CC01B821A821D821C82198295
:10080000188225C02115310511F12130310599F3E8
:10081000FB01A481B581BD83AC83FD0117821682E3
:10082000215030403983288312C02115310579F0D9
:100830002130310501F3FC01A681B781BB83AA8376
:10084000FD01158214822150304039832883CA016A
:10085000DF91CF9108950F931F93CF93DF93DC0126
:100860008B016115710509F48FC04830510508F4FA
:100870008BC0FB0171836083538342831582148292
:1008800017821682FC0186819781840F951F9783BA
:100890008683FB0122813381260F371FFD01C28130
:1008A000D381209709F443C088819981281739079B
:1008B000F1F1BE01FB01668177816115710531F0AF
:1008C000FB018081918128173907A1F7F801408148
:1008D0005181209731F431C00E80DF81C02D2097E7
:1008E00061F1888199812A813B81820F931F48178A
:1008F000590791F76115710571F0F80182819381B3
:10090000FB0122813381820F931FF801938382833D
:10091000CD010E94D6032097B9F18A819B81F8010D
:1009200022813381820F931F9B838A832DC0BE0156
:10093000F801408151812097A1F6FD012481358184
:100940008D919C911197009779F4F801158214828A
:1009500017821682FD011383028315830483019697
:1009600011969C938E93C6CFF90117830683F801E5
:100970003583248317821682FD0115830483019633
:1009800011969C938E93B6CFDF91CF911F910F91CB
:100990000895FB01329740815181BF010E942B04D1
:1009A00008950F931F93CF93DF93FC016115710599
:1009B00019F421C06F5F7F4F60FDFCCF8B010E5F8C
:1009C0001F4F0830110580F1C281D381209781F03B
:1009D0009801285F3F4F8A819B818217930770F4AB
:1009E0008017910759F00E80DF81C02D209799F76D
:1009F000CF010E94D10380E090E020C0801B910BCA
:100A00009B838A8386819781801B910B9783868342
:100A10008A819B81009759F0E881F981E80FF91FDD
:100A200001931193CF010AC008E010E0CDCFBE01C1
:100A3000CF010E94D6038A819B81EECFDF91CF91B7
:100A40001F910F91089585B7806285BF0E942B0585
:100A50000E944C050895CF93DF93CDB7DEB7229760
:100A60000FB6F894DEBF0FBECDBF0E94840380EBAB
:100A700091E09A83898360E070E1681B790BCE0175
:100A800001960E942E0F22960FB6F894DEBF0FBE7D
:100A9000CDBFDF91CF91089585E08EBD1092AB015F
:100AA0001092AC011092AD011092AE0187B7846034
:100AB00087BF08950E9484032AE730E0FC0135AB2C
:100AC00024AB19BE17BE10927D006F988AB18F714A
:100AD0008AB9EAE9F0E080818F718083379847987E
:100AE000E39808950E94FD060E94770508950E94EC
:100AF00084030895BC018930910568F429B76150D9
:100B0000704081E090E002C0880F991F6A95E2F77B
:100B1000282B29BF089581319105B8F088319105BE
:100B200019F18931910530F58431910509F457C0E7
:100B30008531910508F43DC08631910509F461C005
:100B4000479708F45CC0479A089547B720E130E022
:100B5000281B390B81E090E002C0880F991F2A956D
:100B6000E2F7482B47BF089580917D008160809314
:100B70007D0008958C31910561F18D31910570F002
:100B80008E31910509F43FC08E31910550F18F31BE
:100B9000910509F446C08097B1F008958A31910516
:100BA000D1F14B9730F180917D00886080937D007A
:100BB00008958231910569F183319105C0F441971F
:100BC00061F76F9A089580919A00806480939A00EB
:100BD000089580917D00826080937D000895569AEB
:100BE000089580917D00846080937D000895559ADA
:100BF000089580917D00806280937D000895379AEA
:100C00000895E39A089580919A00806880939A00ED
:100C10000895579A089580917D00806180937D00AA
:100C2000089580919A00806280939A0008959F921F
:100C3000AF92BF92CF92DF92EF92FF920F931F93EA
:100C4000CF93DF93CDB7DEB72C970FB6F894DEBF06
:100C50000FBECDBF0E948403FC0104A915A918860C
:100C60001F8287E2A82E81E0B82E62E170E0C50104
:100C70000E94D1047C0182E090E0F7019583848397
:100C80001782168211861086D7011A96F386E2869D
:100C90008F8198859E838D838D819E81FD019383B5
:100CA00082831582148217821682F89460E071E0C4
:100CB000C5010E94D104AC01D7018D939C9383EDB3
:100CC0009DE0D82ECC24892F9927C82AD92A4250B2
:100CD0005F4FFA01D182C0824E5F5040DA01A452C8
:100CE000BF4FF0E89F2E9C92902F8827212F33270B
:100CF000822B932BFD0191A380A3448F852F9927ED
:100D0000858FF701B383A2831C870B8740E051E0F6
:100D1000BE01655F7F4FC7010E94EB0B8FEF9FE71E
:100D20009C838B8362E170E0C5010E94D1048C0139
:100D300081E090E0F8019583848317821682118602
:100D40001086D8011A96138702878B819C819A831B
:100D5000898389819A81FD0193838283158214821C
:100D600017821682F89460E071E0C5010E94D104F8
:100D7000BC01D8018D939C9362507F4FFB01D182BF
:100D8000C0826E5F70404BEE5CE0DB01A452BF4F4F
:100D90009C92942F8827252F3327822B932BFD019C
:100DA00091A380A3648F872F9927858FF801B38340
:100DB000A2835A87498740E051E0BE01675F7F4FB9
:100DC000C8010E94EB0B81E080934301F70182810F
:100DD00093810E94E90E2C960FB6F894DEBF0FBEE9
:100DE000CDBFDF91CF911F910F91FF90EF90DF90DA
:100DF000CF90BF90AF909F9008950F931F9361E0A5
:100E000070E087E291E00E94D1048C01109287008B
:100E100081E0809386008DE080938A0086EE98E0E2
:100E200090939201809391018AE190E00E947A056B
:100E3000EDE7F0E080818061808310933E010093B4
:100E40003D0180E090E01F910F9108956F5F7F4F0B
:100E500009F008950197E9F71092400110923F01BF
:100E6000109242011092410110923401109233010C
:100E7000109236011092350110923801109237010C
:100E800008956FEF7FEF81E090E00E9426070895BC
:100E9000FC0181E191E0918380830895FC0181E16F
:100EA00091E0918380830895FC0181E191E0918339
:100EB00080830895FC0181E191E09183808308950E
:100EC0000F931F93CF93DF938C01FB01EA01798786
:100ED0006887E9017F836E83578346833187208744
:100EE000F80180819181019691838083DF91CF9178
:100EF0001F910F910895CF93DF93EC01EA81FB815D
:100F0000F894F8942681378186819781019697839A
:100F10008683789437FD02C0789403C0CF010E9485
:100F20004D0CDF91CF910895CF93DF93EC01AB018E
:100F30008A819B816C817D812881398121303105B5
:100F4000C1F0FA01A681B781109769F1FA01808595
:100F500091850097A9F0FD0191878087FA0180852E
:100F60009185FC01B783A6832150304039832883C3
:100F70002CC01B821A821D821C821982188225C0F5
:100F80002115310511F12130310599F3FB01A681BD
:100F9000B781BD83AC83FD0111861086215030409E
:100FA0003983288312C02115310579F021303105AC
:100FB00001F3FC01A085B185BB83AA83FD011782E3
:100FC00016822150304039832883CA01DF91CF91A6
:100FD0000895CF93DF939C01F894C0913501D0918F
:100FE0003601209731F423C00884D985C02D20977D
:100FF000F1F08881998128173907B1F7BE0183E3A1
:1010000091E00E949407E885F985309781F082810C
:101010009381A481B5812A813B814C815D81820FBE
:10102000931FA41FB51F82839383A483B5837894F1
:10103000DF91CF910895AF92BF92CF92DF92EF925E
:10104000FF920F931F93CF93DF938C01EB01FC0171
:10105000608171816115710509F46AC0FC01C2806B
:10106000D3802A813B814C815D81F601828193810D
:10107000A481B581281739074A075B0708F43FC0E8
:10108000F601808591850097D1F15C018281938181
:10109000A481B581281B390B4A0B5B0B2A833B8348
:1010A0004C835D837501F50182819381A481B581B3
:1010B000281739074A075B0740F1F501A084B1847E
:1010C000A114B10439F7281739074A075B0710F54F
:1010D000F701A680B780A114B10409F445C0821BB2
:1010E000930BA40BB50BF70182839383A483B58381
:1010F0009701A501BE01C8010E9460075CC076018E
:10110000F60182819381A481B581281739074A07A6
:101110005B07F0F2281B390B4A0B5B0B2A833B83DE
:101120004C835D83F801A481B5816115710569F473
:101130001F821E8219861886D383C283D583C483F7
:1011400061E070E07183608336C0FD01D187C087A4
:10115000BF83AE8319861886F801D583C4836F5F79
:101160007F4F7183608327C0821B930BA40BB50B49
:1011700082839383A483B5836115710579F01F82FF
:101180001E82D986C886F601D783C683F801D38329
:10119000C2836F5F7F4F718360830DC01F821E8289
:1011A00019861886F801D383C283D583C48361E08E
:1011B00070E071836083DF91CF911F910F91FF9059
:1011C000EF90DF90CF90BF90AF900895CF93DF93D3
:1011D000F8948091390190913A01A0913B01B0912E
:1011E0003C010196A11DB11D8093390190933A01F4
:1011F000A0933B01B0933C01209133013091340125
:1012000021153105A1F04091350150913601EA01D7
:101210008A819B81AC81BD810197A109B109FA0145
:1012200082839383A483B583181619068CF4C0E0D7
:10123000D0E07894209709F447C0EC81FD81A0812B
:10124000B181ED012C813D81CF01F90109953CC0AF
:101250002130310561F1EA01E885F985F093360125
:10126000E0933501178216822150304030933401CB
:1012700020933301FA01C081D1818E819F81FFEFDC
:101280008F3F9F0719F001979F838E83892B89F2E7
:1012900088819981AA81BB81FA0182839383A48387
:1012A000B583BA0183E391E00E941B08C2CF10927C
:1012B00036011092350110923801109237011092C8
:1012C000340110923301D6CFDF91CF910895CF92A0
:1012D000DF92EF92FF920F931F93CF93DF938C01D6
:1012E000FB016A01790160817181828193816B5B6D
:1012F0007F4F8F4F9F4F2AE830E040E050E00E9440
:101300001B11D8012D933D934D935C931397E801E6
:10131000DD82CC82FF82EE82F80138961987088739
:101320002283338344835583178216821186108665
:10133000F89488819981AA81BB810097A105B105A4
:1013400039F0BF0183E391E00E941B08789409C043
:101350007894D601ED91FC910480F581E02DC601D1
:101360000995DF91CF911F910F91FF90EF90DF9042
:10137000CF900895EF92FF920F931F93CF93DF9337
:10138000CDB7DEB76E970FB6F894DEBF0FBECDBFF8
:101390001E821D8218861F821A8619861C861B864D
:1013A00027E031E03A8329838E010B5F1F4F1C83B6
:1013B0000B832DE0E22EF12CEC0EFD1E21E030E03F
:1013C000AE014F5F5F4FBC01C7010E946709F894EF
:1013D000F8942B853C858B859C8501979C878B8712
:1013E00078941216130614F4789403C0C8010E946E
:1013F000D80DC7010E94E90781E191E09A838983B2
:10140000F894C8010E949A0B6E960FB6F894DEBF4E
:101410000FBECDBFDF91CF911F910F91FF90EF9045
:1014200008956F5F7F4F09F008950197E9F71092D3
:101430004F0110924E0110925101109250011092E2
:1014400045011092440110924701109246011092FA
:1014500049011092480110924B0110924A010895DF
:101460006FEF7FEF81E090E00E94110A08950F93E3
:101470001F93CF93DF938C01FB01EA017F836E837F
:10148000E9017D836C835583448337832683F80188
:1014900080819181019691838083DF91CF911F910B
:1014A0000F910895CF93DF93EC01AB018A819B816B
:1014B0006C817D812881398121303105C1F0FA01AB
:1014C000A481B581109769F1FA018681978100970F
:1014D000A9F0FD0197838683FA0186819781FC013B
:1014E000B583A48321503040398328832CC01B82CC
:1014F0001A821D821C821982188225C0211531058D
:1015000011F12130310599F3FB01A481B581BD832F
:10151000AC83FD0117821682215030403983288325
:1015200012C02115310579F02130310501F3FC019C
:10153000A681B781BB83AA83FD0115821482215045
:10154000304039832883CA01DF91CF910895EF920B
:10155000FF920F931F93CF93DF937C01DB01EC018C
:10156000688179816115710509F445C0EC010A8132
:101570001B81F80122813381ED018A819B818217D1
:1015800093074CF1E8018E819F81009721F1FC01C6
:10159000AF0122813381ED018A819B8182179307FC
:1015A000DCF00680F781E02D309791F7EA012A817F
:1015B0003B81FD018281938182179307B4F4EA0194
:1015C0008C819D810097A1F19A01AC01BD01C701F9
:1015D0000E94370A4EC0A801EA012A813B81FD0121
:1015E000828193818217930754F3E701EC81FD8197
:1015F0006115710571F4FD0115821482178216823E
:10160000BB83AA83BD83AC8361E070E07983688388
:1016100030C0B783A683ED01FD83EC831F821E8259
:10162000F701B583A4836F5F7F4F7183608321C00F
:101630006115710581F0FD011582148217830683FF
:10164000E801BD83AC83F701B383A2836F5F7F4F53
:10165000718360830EC0FD01158214821782168289
:10166000E701BB83AA83BD83AC8361E070E079832B
:101670006883DF91CF911F910F91FF90EF900895B4
:10168000CF93DF93882309F451C0E0914A01F09190
:101690004B01C081D18180914A0190914B01809191
:1016A000440190914501892BC9F4E0914A01F091E0
:1016B0004B010190F081E02DCE17DF07B9F18C814D
:1016C0009D81029771F182E090E09583848362812D
:1016D0007381CE0102960E94880228C060914A015F
:1016E00070914B0184E491E00E94520A60914A019A
:1016F00070914B0184E491E00E94A70A8091460119
:101700009091470190934B0180934A01E0914A01E7
:10171000F0914B010190F081E02DCE17DF0779F6B3
:1017200005C081E090E09D838C83CDCF7894DF91DC
:10173000CF9108950F931F93CF93DF93EC01809186
:101740004A0190914B0101E010E088819981009756
:10175000D1F1AA81BB818130910571F1FD01268112
:1017600037813B832A83F90115821482019799837B
:101770008883ED91FC9115830483178216828091F2
:101780004A0190914B013A96BF0184E491E00E9496
:10179000A70A80914A0190914B01892BB1F6809163
:1017A00046019091470190934B0180934A018881B3
:1017B0009981009771F607C01B821A821D821C82D4
:1017C00019821882D6CF81E00E94400BDF91CF9121
:1017D0001F910F910895CF93DF93EC018A819B8134
:1017E00080914C0190914D01019690934D01809311
:1017F0004C0180914A0190914B01BE01665F7F4F81
:1018000084E491E00E94A70A80914A0190914B01E3
:10181000892BA1F18C819D810197C9F18C819D81DA
:101820000297A9F180914A0190914B016A857B85CD
:10183000C0914601D0914701209731F428C00E8015
:10184000DF81C02D209719F1888199816817790768
:10185000B1F7BE0184E491E00E94520A80914A01EE
:1018600090914B018C179D0791F4809146019091C6
:10187000470190934B0180934A0109C08091460132
:101880009091470190934B0180934A01C3CF81E02F
:101890000E94400BDF91CF910895CF93DF93DC013D
:1018A00080914A0190914B018D919C9111970097E5
:1018B000C9F1FD01C281D3818130910561F12E8191
:1018C0003F81FD0133832283F90115821482019740
:1018D0008D939C93E881F98181E090E095838483E6
:1018E0001782168280914A0190914B013A96BF016E
:1018F00084E491E00E94A70A80914A0190914B01F3
:10190000892B81F4809146019091470190934B017E
:1019100080934A0107C013821282158214821D929D
:101920001C92D8CF81E00E94400BDF91CF910895A7
:101930000F931F93CF93DF93F89480914A01909176
:101940004B01E0914A01F0914B01C081D18180911E
:101950004A0190914B018091440190914501029779
:10196000B0F000914A0110914B01B80184E491E07C
:101970000E94520A809146019091470190934B0139
:1019800080934A01B80184E491E00E94A70AE091A3
:101990004A01F0914B010190F081E02DCE17DF0755
:1019A000A1F08C819D81029759F082E090E09583AF
:1019B000848362817381CE0102960E94880205C0F1
:1019C00081E090E09D838C83F0CF7894DF91CF917C
:1019D0001F910F91089540914C0150914D0120911C
:1019E0004401309145014115510519F4F8940C94C6
:1019F000000085B7837E85BF88952230310598F336
:101A00000E94980C40914C0150914D01209144014D
:101A1000309145014115510561F7E8CFEF92FF92F2
:101A20000F931F93CF93DF937C01F89480914A0129
:101A300090914B01E0914A01F0914B01008111819D
:101A400080914A0190914B01E8012A853B85C09124
:101A50004601D0914701209731F417C00E80DF81F5
:101A6000C02D209791F08881998128173907B1F707
:101A7000BE0184E491E00E94520A80914A01909153
:101A80004B018C179D0709F474C0D801ED91FC91AE
:101A9000F182E08285E090E0E8019D838C83809173
:101AA0004C0190914D01019790934D0180934C0111
:101AB00088859985892BE1F0E885F98581E090E0BA
:101AC000958384836885798580914A0190914B0143
:101AD000665F7F4F84E491E00E94A70A80914A01EB
:101AE00090914B01892B09F44DC0F80111861086A5
:101AF00080914A0190914B01809144019091450160
:101B0000892BC1F060914A0170914B0184E491E00E
:101B10000E94520A60914A0170914B0184E491E065
:101B20000E94A70A809146019091470190934B0132
:101B300080934A01E0914A01F0914B010190F081BC
:101B4000E02D0E171F0739F1E8018C819D81029766
:101B500059F082E090E09583848362817381C801AB
:101B600002960E94880217C081E090E09D838C83DA
:101B7000F0CF809146019091470190934B01809363
:101B80004A0183CF809146019091470190934B0188
:101B900080934A01AACF7894DF91CF911F910F9142
:101BA000FF90EF900895882F992F0E940E0D0895B1
:101BB000CF92DF92EF92FF920F931F93CF93DF9319
:101BC0007C0180914A0190914B01E0914A01F09192
:101BD0004B010081118180914A0190914B019AE063
:101BE000C92ED12CC00ED11EE8012A853B85C0919B
:101BF0004601D0914701209731F416C00E80DF8155
:101C0000C02D209789F08881998128173907B1F76D
:101C1000BE0184E491E00E94520A80914A019091B1
:101C20004B01C817D90751F184E090E0F801958382
:101C30008483B601C7010E94A70AE801FF82EE82F1
:101C4000E0914A01F0914B010190F081E02D0E17D7
:101C50001F07E9F08C819D81029759F082E090E0A6
:101C60009583848362817381C80102960E948802F1
:101C70000EC081E090E09D838C83F0CF809146017F
:101C80009091470190934B0180934A01CDCF789476
:101C9000DF91CF911F910F91FF90EF90DF90CF9048
:101CA00008956F5F7F4F09F008950197E9F78FEF6F
:101CB0008093520108956FEF7FEF81E090E00E94E2
:101CC000510E08956F5F7F4F09F00895813091059F
:101CD000F1F0892BD1F78091570190915801892B10
:101CE00051F5E0E7F0E010A2809157019091580182
:101CF000892B41F5E9E0F0E010A280915701909125
:101D00005801892BD9F4EAE0F0E010A2089510926E
:101D1000580110925701109290008FE289B986E81D
:101D200080935901809395001BB8EAE0F0E080A110
:101D3000886180A30895E8E7F0E0D5CFEAE7F0E016
:101D400010A20895E9E7F0E0D7CF6FEF7FEF80E0D2
:101D500090E00E94620E08956FEF7FEF81E090E0C7
:101D60000E94620E0895E82FFF27E7FDF095E33209
:101D7000F10550F4EE0FFF1FE35AFE4F0190F08182
:101D8000E02D309709F009950895CF93DF93CDB7F3
:101D9000DEB722970FB6F894DEBF0FBECDBF80E04E
:101DA00090E19A83898360E071E0CE0101960E9400
:101DB0002E0F22960FB6F894DEBF0FBECDBFDF9177
:101DC000CF910895CB016AE070E00E940811CB0129
:101DD000089501979EBF8DBF1F900F902F903F9049
:101DE0004F905F906F907F908F909F90AF90BF903B
:101DF000CF90DF90EF90FF900F911F912F913F9127
:101E00004F915F916F917F918F919F91AF91BF9112
:101E1000CF91DF91EF91FF911FBE11240895089596
:101E20006F5F7F4F09F008950197E9F71092A401C1
:101E30001092A3011092A6011092A5011092A80180
:101E40001092A7011092AA011092A90108956FEFB4
:101E50007FEF81E090E00E94100F0895EF92FF92D3
:101E60000F931F93CF93DF93FC0100811181011524
:101E7000110509F4F2C06115710509F4EEC0F8010D
:101E80001183008373836283158214828091A90178
:101E90009091AA01860F971F9093AA018093A901A0
:101EA000628173819801260F371F4091A5015091DF
:101EB000A6014115510509F480C0FA018081918184
:101EC0002817390709F479C0EA010C80DD81C02D9B
:101ED000209729F08881998182179307B1F7F8013B
:101EE000E080F1804115510509F465C0FA01808157
:101EF000918122813381820F931FE816F90609F43C
:101F00005AC0DA01FD01A481B581109759F0FD0195
:101F1000828193812D913C911197820F931FE81636
:101F2000F90681F72097C9F18A819B81860F971F57
:101F3000F801938382832091A3013091A401213081
:101F40003105E9F14C175D0709F476C041155105DB
:101F5000B1F0FA0184819581009749F40BC0AC017E
:101F6000009769F0FC0184819581009719F0C817EA
:101F7000D907A9F78C819D81FA019583848380918B
:101F8000A7019091A801C817D90709F450C02150A2
:101F900030403093A4012093A3011097E9F0FD0194
:101FA00082819381F80122813381820F931FFD0189
:101FB0009383828352C0DA01B5CFEA0190CF1092A9
:101FC000A6011092A5011092A8011092A7011092EB
:101FD000A4011092A301E1CF8091A3019091A401EB
:101FE000009799F0E091A701F091A801158304836F
:101FF000F801158214821093A8010093A70101969D
:102000009093A4018093A30128C0F8011582148243
:102010001093A6010093A5011093A8010093A701B6
:1020200021E030E03093A4012093A30116C0509327
:10203000A8014093A701ABCF2115310509F4ADCF1D
:102040008C819D819093A6018093A5012150304001
:102050003093A4012093A301A0CFDF91CF911F91D2
:102060000F91FF90EF9008950F931F93CF93DF93FD
:102070008C01EC01198218826115710509F489C07F
:10208000E091A501F091A601DF01309709F481C02C
:10209000228133812617370730F40480F581E02D43
:1020A0003097B1F776C0261B370B3383228380919C
:1020B000A9019091AA01861B970B9093AA01809386
:1020C000A9012281338121153105A9F54091A30190
:1020D0005091A40141305105B1F1BD01AE17BF07C8
:1020E00009F440C01097C1F0ED01AC81BD8110979B
:1020F00071F0AE17BF0759F0BD01109769F0ED01FF
:10210000AC81BD81109719F0EA17FB07A9F7A481EC
:10211000B581EB01BD83AC838091A7019091A801AB
:102120008E179F0789F1415050405093A40140936E
:10213000A3012281338180819181820F931FF80155
:102140009183808326C01092A6011092A50110925F
:10215000A8011092A7011092A4011092A30122815C
:102160003381E9CF4115510531F3A481B581B09395
:10217000A601A093A501415050405093A401409363
:10218000A30122813381D7CF7093A8016093A70167
:10219000CACFC801DF91CF911F910F9108951F926F
:1021A0000F920FB60F9211248F939F93AF93BF930B
:1021B0008091AB019091AC01A091AD01B091AE01C5
:1021C0000196A11DB11D8093AB019093AC01A0932A
:1021D000AD01B093AE01BF91AF919F918F910F90E0
:1021E0000FBE0F901F901895AA1BBB1B51E107C093
:1021F000AA1FBB1FA617B70710F0A61BB70B881F97
:10220000991F5A95A9F780959095BC01CD01089525
:1022100097FB092E07260AD077FD04D0E5DF06D00C
:1022200000201AF4709561957F4F0895F6F7909508
:1022300081959F4F0895A1E21A2EAA1BBB1BFD0199
:102240000DC0AA1FBB1FEE1FFF1FA217B307E40795
:10225000F50720F0A21BB30BE40BF50B661F771FED
:10226000881F991F1A9469F76095709580959095CD
:102270009B01AC01BD01CF010895EE0FFF1F05903A
:10228000F491E02D099410E0C2EAD0E004C0FE0110
:0C2290000E943F112296C43AD107C9F702
:10229C000100100000000054075A077B07000000E3
:0822AC000048074E07890300FA
:00000001FF
