:100000000C9450000E947C000E947C000E947C00A6
:100010000E947C000E947C000E947C000E947C0068
:100020000E947C000E947C000E947C000E947C0058
:100030000E947C000E947C000E94B10F0E947C0004
:100040000E947C000E947C000E947C000E947C0038
:100050000E947C000E947C000E947C000E947C0028
:100060000E947C000E947C000E947C000E947C0018
:100070000E947C000E947C000E947C000E947C0008
:100080000E947C000E947C000E947C00E40111021E
:1000900039027C02CC023B062A09950D090E8E0D11
:1000A00011241FBECFEFD0E1DEBFCDBF11E0A0E035
:1000B000B1E0E2E1F0E200E00BBF02C007900D9278
:1000C000AC35B107D9F711E0ACE5B1E001C01D9244
:1000D000AD3EB107E1F710E0CEE9D0E004C02297D1
:1000E000FE010E94FA0FCC38D107C9F70C94B0007A
:1000F0000E94AE0D0E94B0001F920F920FB60F9299
:100100008F93CF93DF93DEB7CDB788851A8018869B
:1001100019801F822296DEBFCDBF11242F933F93FB
:100120004F935F936F937F939F93AF93BF93EF939F
:10013000FF93869581500E949C0DFF91EF91BF9196
:10014000AF919F917F916F915F914F913F912F91CF
:100150008F910F900FBE0F901F90DF91CF91189548
:100160008FEF87BB88BB1A821982109290008FE2B2
:1001700089B986E88B8389819A81892B09F0B7C078
:10018000E5E7F0E086E880A389819A81892B09F070
:10019000ABC0EBE0F0E010A229813A8121153105D6
:1001A00009F09FC0EAE0F0E080A18861232B09F00C
:1001B00095C0EAE0F0E080A38FEF87BB80E492E493
:1001C000AFE0B0E08C879D87AE87BF87CE010C96ED
:1001D0000E94B40881E088BB8FEF9FEF0197F1F791
:1001E000809121018823F9F0A2E2B1E0FD0131976D
:1001F000908129813A8105C0EBE0F0E080A185FD86
:1002000008C021153105C1F3EBE7F0E080A185FFBF
:10021000F8CF232B09F05FC0ECE0F0E090A3FD01E4
:100220008D91882329F780E492E4AFE0B0E08887DD
:100230009987AA87BB87CE0108960E94B40884E0FC
:1002400088BB809100018823F1F0A1E0B1E0FD01BD
:100250003197908129813A8105C0EBE0F0E080A1DF
:1002600085FD08C021153105C1F3EBE7F0E080A161
:1002700085FFF8CF232B61F5ECE0F0E090A3FD01C2
:100280008D91882331F780E492E4AFE0B0E08C8375
:100290009D83AE83BF83CE0104960E94B40818BA32
:1002A000DE01119689819A81892B51F5E0E7F0E012
:1002B00010A28D919C911197892BF9F4E9E0F0E05F
:1002C00010A28D919C91892BA9F4EAE0F0E01BC06B
:1002D000ECE7F0E0D3CFECE7F0E0A0CFEAE7F0E026
:1002E0006ACFEAE7F0E060CFEBE7F0E054CFEDE76C
:1002F000F0E048CFEAE7F0E006C0E9E7F0E0E0CF61
:10030000E8E7F0E0D5CF10A280E090E00C948801FF
:100310000C9483021FB6FF93EF93DF93CF93BF93A9
:10032000AF939F938F937F936F935F934F933F937D
:100330002F931F930F93FF92EF92DF92CF92BF9272
:10034000AF929F928F927F926F925F924F923F9265
:100350002F920F921F921124B92FA82F9EB78DB7FD
:1003600001968D939C93972F862F01979EBF8DBFEB
:100370001F900F902F903F904F905F906F907F90C5
:100380008F909F90AF90BF90CF90DF90EF90FF90B5
:100390000F911F912F913F914F915F916F917F919D
:1003A0008F919F91AF91BF91CF91DF91EF91FF918D
:1003B0001FBE112408956F5F7F4F09F008950197C4
:1003C000E9F70E94110508956FEF7FEF81E090E05B
:1003D0000E94DB010895CF93DF93CDB7DEB722975C
:1003E0000FB6F894DEBF0FBECDBF6F5F7F4F81F4B5
:1003F000019771F460E072E0CE0101960E94160F41
:1004000069817A8140E052E08CE591E00E942D0301
:1004100022960FB6F894DEBF0FBECDBFDF91CF910D
:1004200008956FEF7FEF81E090E00E94EB01089567
:100430006F5F7F4F09F008950197E9F78AE090E038
:1004400090936701809366019093650180936401A6
:1004500010925D0110925C0110925F0110925E019A
:10046000109261011092600110926301109262017A
:1004700008956FEF7FEF81E090E00E9418020895E9
:10048000CF93DF93CDB7DEB722970FB6F894DEBFD8
:100490000FBECDBF0E941D040E948602FC0186A9EA
:1004A000882321F488E790E095AB84AB60ED77E09A
:1004B000CE0101960E94160F69817A8140ED57E0C6
:1004C00089E691E00E942D030E9454040E946C046E
:1004D00022960FB6F894DEBF0FBECDBFDF91CF914D
:1004E00008956F5F7F4F09F008950197E9F788E657
:1004F00091E00E94400208956FEF7FEF81E090E06D
:100500000E94710208950E94080CFFCF809146015D
:1005100090914701089585B7837E85BF889508959A
:100520006F5F7F4F09F008950197E9F710929901E5
:1005300010929801109290008FE289B986E880931A
:100540009A01809395001BB8EAE0F0E080A18861F1
:1005500080A310929701109296011092950110922B
:1005600094018AE090E090937401809373019093DA
:1005700072018093710110926A01109269011092C8
:100580006C0110926B0110926E0110926D0110922D
:10059000700110926F0108956FEF7FEF81E090E09E
:1005A0000E949002089585B7837E85BF889508953F
:1005B000CF93DF93EC01AB018A819B816C817D81BC
:1005C0002881398121303105C1F0FA01A481B5813A
:1005D000109769F1FA01868197810097A9F0FD01D2
:1005E00097838683FA0186819781FC01B583A48372
:1005F00021503040398328832CC01B821A821D82EF
:100600001C821982188225C02115310511F1213073
:10061000310599F3FB01A481B581BD83AC83FD0154
:1006200017821682215030403983288312C0211549
:10063000310579F02130310501F3FC01A681B78144
:10064000BB83AA83FD011582148221503040398377
:100650002883CA01DF91CF9108950F931F93CF9301
:10066000DF93DC018B016115710509F48FC04830FF
:10067000510508F48BC0FB0171836083538342836F
:100680001582148217821682FC0186819781840F5D
:10069000951F97838683FB0122813381260F371FA5
:1006A000FD01C281D381209709F443C088819981DB
:1006B00028173907F1F1BE01FB01668177816115C9
:1006C000710531F0FB018081918128173907A1F76D
:1006D000F80140815181209731F431C00E80DF81D3
:1006E000C02D209761F1888199812A813B81820FF9
:1006F000931F4817590791F76115710571F0F801BB
:1007000082819381FB0122813381820F931FF80143
:1007100093838283CD010E94D8022097B9F18A8108
:100720009B81F80122813381820F931F9B838A83EF
:100730002DC0BE01F801408151812097A1F6FD0135
:10074000248135818D919C911197009779F4F8015E
:100750001582148217821682FD011383028315838A
:100760000483019611969C938E93C6CFF90117834B
:100770000683F8013583248317821682FD011583D1
:100780000483019611969C938E93B6CFDF91CF91FF
:100790001F910F9108950F931F93CF93DF93FC0147
:1007A0006115710519F421C06F5F7F4F60FDFCCFAB
:1007B0008B010E5F1F4F0830110580F1C281D3817C
:1007C000209781F09801285F3F4F8A819B81821793
:1007D000930770F48017910759F00E80DF81C02DC8
:1007E000209799F7CF010E94D30280E090E020C0CB
:1007F000801B910B9B838A8386819781801B910B41
:10080000978386838A819B81009759F0E881F981DB
:10081000E80FF91F01931193CF010AC008E010E01F
:10082000CDCFBE01CF010E94D8028A819B81EECF3D
:10083000DF91CF911F910F91089585B7806285BF99
:100840000E9425040E9446040895CF93DF93CDB7FC
:10085000DEB722970FB6F894DEBF0FBECDBF0E9461
:1008600086028EEE91E09A83898360E070E1681BD6
:10087000790BCE0101960E94100E22960FB6F894C5
:10088000DEBF0FBECDBFDF91CF91089585E08EBD55
:100890001092E9011092EA011092EB011092EC0122
:1008A00087B7846087BF08950E94860228E730E0FA
:1008B000FC0135AB24AB19BE17BE10927D006F98BA
:1008C0008AB18F718AB9EAE9F0E080818F71808303
:1008D00037984798E39808950E94F7050E9471049D
:1008E00008950E9486020895BC018930910568F43C
:1008F00029B76150704081E090E002C0880F991FD5
:100900006A95E2F7282B29BF089581319105B8F047
:100910008831910519F18931910530F584319105BE
:1009200009F457C08531910508F43DC08631910521
:1009300009F461C0479708F45CC0479A089547B727
:1009400020E130E0281B390B81E090E002C0880FE5
:10095000991F2A95E2F7482B47BF089580917D00A3
:10096000816080937D0008958C31910561F18D3116
:10097000910570F08E31910509F43FC08E319105DB
:1009800050F18F31910509F446C08097B1F0089578
:100990008A319105D1F14B9730F180917D008860CB
:1009A00080937D0008958231910569F1833191052D
:1009B000C0F4419761F76F9A089580919A0080641E
:1009C00080939A00089580917D00826080937D00DD
:1009D0000895569A089580917D00846080937D00EB
:1009E0000895559A089580917D00806280937D00DE
:1009F0000895379A0895E39A089580919A0080683F
:100A000080939A000895579A089580917D0080619F
:100A100080937D00089580919A00806280939A006F
:100A200008959F92AF92BF92CF92DF92EF92FF9282
:100A30000F931F93CF93DF93CDB7DEB72C970FB6ED
:100A4000F894DEBF0FBECDBF0E948602FC0104A950
:100A500015A918861F8289E6A82E81E0B82E62E1CA
:100A600070E0C5010E94CB037C0182E090E0F701B9
:100A7000958384831782168211861086D7011A9671
:100A8000F386E2868F8198859E838D838D819E81FA
:100A9000FD01938382831582148217821682F89453
:100AA00060E071E0C5010E94CB03AC01D7018D93DA
:100AB0009C938DEC9CE0D82ECC24892F9927C82AB2
:100AC000D92A42505F4FFA01D182C0824E5F504016
:100AD000DA01A452BF4FF0E89F2E9C92902F8827F6
:100AE000212F3327822B932BFD0191A380A3448FC9
:100AF000852F9927858FF701B383A2831C870B87E6
:100B000040E051E0BE01655F7F4FC7010E94E50AEA
:100B10008FEF9FE79C838B8362E170E0C5010E94A9
:100B2000CB038C0181E090E0F801958384831782E8
:100B3000168211861086D8011A96138702878B8138
:100B40009C819A83898389819A81FD019383828321
:100B50001582148217821682F89460E071E0C50154
:100B60000E94CB03BC01D8018D939C9362507F4FB0
:100B7000FB01D182C0826E5F704045EE5BE0DB011D
:100B8000A452BF4F9C92942F8827252F3327822B66
:100B9000932BFD0191A380A3648F872F9927858FC5
:100BA000F801B383A2835A87498740E051E0BE0130
:100BB000675F7F4FC8010E94E50A81E0809385014D
:100BC000F701828193810E94CB0D2C960FB6F89489
:100BD000DEBF0FBECDBFDF91CF911F910F91FF9070
:100BE000EF90DF90CF90BF90AF909F9008950F93BC
:100BF0001F9361E070E089E691E00E94CB038C01D5
:100C00001092870081E0809386008DE080938A00B7
:100C100080EE97E09093D0018093CF018AE190E03D
:100C20000E947404EDE7F0E080818061808310937E
:100C3000800100937F0180E090E01F910F91089563
:100C40006F5F7F4F09F008950197E9F710928201D5
:100C5000109281011092840110928301109276010A
:100C600010927501109278011092770110927A011A
:100C70001092790108956FEF7FEF81E090E00E947C
:100C800020060895FC0186E591E091838083089514
:100C9000FC0186E591E0918380830895FC0186E55F
:100CA00091E0918380830895FC0186E591E0918332
:100CB000808308950F931F93CF93DF938C01FB01E3
:100CC000EA0179876887E9017F836E8357834683CA
:100CD00031872087F80180819181019691838083FB
:100CE000DF91CF911F910F910895CF93DF93EC0186
:100CF000EA81FB81F894F894268137818681978177
:100D0000019697838683789437FD02C0789403C058
:100D1000CF010E94470BDF91CF910895CF93DF93CE
:100D2000EC01AB018A819B816C817D8128813981B5
:100D300021303105C1F0FA01A681B781109769F120
:100D4000FA01808591850097A9F0FD019187808740
:100D5000FA0180859185FC01B783A683215030403C
:100D6000398328832CC01B821A821D821C8219821F
:100D7000188225C02115310511F12130310599F373
:100D8000FB01A681B781BD83AC83FD01118610866E
:100D9000215030403983288312C02115310579F064
:100DA0002130310501F3FC01A085B185BB83AA8305
:100DB000FD01178216822150304039832883CA01F1
:100DC000DF91CF910895CF93DF939C01F894C09168
:100DD0007701D0917801209731F423C00884D98518
:100DE000C02D2097F1F08881998128173907B1F734
:100DF000BE0185E791E00E948E06E885F98530976F
:100E000081F082819381A481B5812A813B814C81CB
:100E10005D81820F931FA41FB51F82839383A483D8
:100E2000B5837894DF91CF910895AF92BF92CF921E
:100E3000DF92EF92FF920F931F93CF93DF938C017A
:100E4000EB01FC01608171816115710509F46AC0D3
:100E5000FC01C280D3802A813B814C815D81F601F7
:100E600082819381A481B581281739074A075B07DE
:100E700008F43FC0F601808591850097D1F15C01AF
:100E800082819381A481B581281B390B4A0B5B0BAE
:100E90002A833B834C835D837501F50182819381B5
:100EA000A481B581281739074A075B0740F1F5018E
:100EB000A084B184A114B10439F7281739074A076F
:100EC0005B0710F5F701A680B780A114B10409F4FF
:100ED00045C0821B930BA40BB50BF7018283938350
:100EE000A483B5839701A501BE01C8010E945A06DB
:100EF0005CC07601F60182819381A481B5812817B7
:100F000039074A075B07F0F2281B390B4A0B5B0BCA
:100F10002A833B834C835D83F801A481B5816115ED
:100F2000710569F41F821E8219861886D383C283D5
:100F3000D583C48361E070E07183608336C0FD01B6
:100F4000D187C087BF83AE8319861886F801D58301
:100F5000C4836F5F7F4F7183608327C0821B930BB5
:100F6000A40BB50B82839383A483B58361157105AC
:100F700079F01F821E82D986C886F601D783C68380
:100F8000F801D383C2836F5F7F4F718360830DC08D
:100F90001F821E8219861886F801D383C283D583E7
:100FA000C48361E070E071836083DF91CF911F9112
:100FB0000F91FF90EF90DF90CF90BF90AF9008958A
:100FC000CF93DF93F89480917B0190917C01A09165
:100FD0007D01B0917E010196A11DB11D80937B0121
:100FE00090937C01A0937D01B0937E0120917501C7
:100FF0003091760121153105A1F040917701509192
:101000007801EA018A819B81AC81BD810197A109A8
:10101000B109FA0182839383A483B5831816190654
:101020008CF4C0E0D0E07894209709F447C0EC81BC
:10103000FD81A081B181ED012C813D81CF01F901BC
:1010400009953CC02130310561F1EA01E885F98557
:10105000F0937801E0937701178216822150304097
:101060003093760120937501FA01C081D1818E8180
:101070009F81FFEF8F3F9F0719F001979F838E831A
:10108000892B89F288819981AA81BB81FA018283A7
:101090009383A483B583BA0185E791E00E94150785
:1010A000C2CF109278011092770110927A011092BB
:1010B00079011092760110927501D6CFDF91CF9110
:1010C0000895CF92DF92EF92FF920F931F93CF93E9
:1010D000DF938C01FB016A0179016081718182815A
:1010E00093816B5B7F4F8F4F9F4F2AE830E040E04A
:1010F00050E00E94D60FD8012D933D934D935C9301
:101100001397E801DD82CC82FF82EE82F8013896E7
:101110001987088722833383448355831782168275
:1011200011861086F89488819981AA81BB810097E5
:10113000A105B10539F0BF0185E791E00E941507CF
:10114000789409C07894D601ED91FC910480F581E2
:10115000E02DC6010995DF91CF911F910F91FF906E
:10116000EF90DF90CF900895EF92FF920F931F932F
:10117000CF93DF93CDB7DEB76E970FB6F894DEBF8F
:101180000FBECDBF1E821D8218861F821A86198649
:101190001C861B862CE431E03A8329838E010B5F89
:1011A0001F4F1C830B832DE0E22EF12CEC0EFD1E55
:1011B00021E030E0AE014F5F5F4FBC01C7010E94EC
:1011C0006108F894F8942B853C858B859C85019764
:1011D0009C878B8778941216130614F4789403C0B6
:1011E000C8010E94D20CC7010E94E30686E591E087
:1011F0009A838983F894C8010E94940A6E960FB668
:10120000F894DEBF0FBECDBFDF91CF911F910F913C
:10121000FF90EF9008956F5F7F4F09F00895019759
:10122000E9F710929101109290011092930110929F
:1012300092011092870110928601109289011092FA
:10124000880110928B0110928A0110928D011092E8
:101250008C0108956FEF7FEF81E090E00E940B0911
:1012600008950F931F93CF93DF938C01FB01EA0145
:101270007F836E83E9017D836C8355834483378349
:101280002683F80180819181019691838083DF918B
:10129000CF911F910F910895CF93DF93EC01AB0194
:1012A0008A819B816C817D81288139812130310542
:1012B000C1F0FA01A481B581109769F1FA01868124
:1012C00097810097A9F0FD0197838683FA018681B3
:1012D0009781FC01B583A483215030403983288352
:1012E0002CC01B821A821D821C821982188225C082
:1012F0002115310511F12130310599F3FB01A4814C
:10130000B581BD83AC83FD01178216822150304028
:101310003983288312C02115310579F02130310538
:1013200001F3FC01A681B781BB83AA83FD0115826D
:1013300014822150304039832883CA01DF91CF9134
:101340000895EF92FF920F931F93CF93DF937C0149
:10135000DB01EC01688179816115710509F445C0F3
:10136000EC010A811B81F80122813381ED018A8120
:101370009B81821793074CF1E8018E819F81009732
:1013800021F1FC01AF0122813381ED018A819B8132
:1013900082179307DCF00680F781E02D309791F7F4
:1013A000EA012A813B81FD018281938182179307A3
:1013B000B4F4EA018C819D810097A1F19A01AC01FE
:1013C000BD01C7010E9431094EC0A801EA012A816E
:1013D0003B81FD01828193818217930754F3E701DA
:1013E000EC81FD816115710571F4FD011582148296
:1013F00017821682BB83AA83BD83AC8361E070E051
:101400007983688330C0B783A683ED01FD83EC83C5
:101410001F821E82F701B583A4836F5F7F4F7183A4
:10142000608321C06115710581F0FD011582148270
:1014300017830683E801BD83AC83F701B383A283DE
:101440006F5F7F4F718360830EC0FD011582148230
:1014500017821682E701BB83AA83BD83AC8361E058
:1014600070E079836883DF91CF911F910F91FF9096
:10147000EF900895CF93DF93882309F451C0E09152
:101480008C01F0918D01C081D18180918C0190916E
:101490008D018091860190918701892BC9F4E0919B
:1014A0008C01F0918D010190F081E02DCE17DF07C6
:1014B000B9F18C819D81029771F182E090E0958372
:1014C000848362817381CE0102960E948A0128C0C2
:1014D00060918C0170918D0186E891E00E944C0929
:1014E00060918C0170918D0186E891E00E94A109C4
:1014F000809188019091890190938D0180938C0156
:10150000E0918C01F0918D010190F081E02DCE17DA
:10151000DF0779F605C081E090E09D838C83CDCF15
:101520007894DF91CF9108950F931F93CF93DF931A
:10153000EC0180918C0190918D0101E010E0888197
:1015400099810097D1F1AA81BB818130910571F118
:10155000FD01268137813B832A83F901158214829C
:10156000019799838883ED91FC91158304831782F9
:10157000168280918C0190918D013A96BF0186E888
:1015800091E00E94A10980918C0190918D01892B9D
:10159000B1F6809188019091890190938D0180939B
:1015A0008C0188819981009771F607C01B821A828D
:1015B0001D821C8219821882D6CF81E00E943A0ACD
:1015C000DF91CF911F910F910895CF93DF93EC019D
:1015D0008A819B8180918E0190918F0101969093D9
:1015E0008F0180938E0180918C0190918D01BE01BD
:1015F000665F7F4F86E891E00E94A10980918C018F
:1016000090918D01892BA1F18C819D810197C9F168
:101610008C819D810297A9F180918C0190918D011F
:101620006A857B85C0918801D0918901209731F42A
:1016300028C00E80DF81C02D209719F18881998103
:1016400068177907B1F7BE0186E891E00E944C095E
:1016500080918C0190918D018C179D0791F4809160
:1016600088019091890190938D0180938C0109C02C
:10167000809188019091890190938D0180938C01D4
:10168000C3CF81E00E943A0ADF91CF910895CF93B2
:10169000DF93DC0180918C0190918D018D919C9163
:1016A00011970097C9F1FD01C281D3818130910565
:1016B00061F12E813F81FD0133832283F90115827F
:1016C000148201978D939C93E881F98181E090E0E9
:1016D000958384831782168280918C0190918D016D
:1016E0003A96BF0186E891E00E94A10980918C01A1
:1016F00090918D01892B81F48091880190918901CD
:1017000090938D0180938C0107C013821282158201
:1017100014821D921C92D8CF81E00E943A0ADF9178
:10172000CF9108950F931F93CF93DF93F8948091F7
:101730008C0190918D01E0918C01F0918D01C0811F
:10174000D18180918C0190918D0180918601909141
:1017500087010297B0F000918C0110918D01B801C2
:1017600086E891E00E944C0980918801909189015E
:1017700090938D0180938C01B80186E891E00E94DE
:10178000A109E0918C01F0918D010190F081E02D93
:10179000CE17DF07A1F08C819D81029759F082E07E
:1017A00090E09583848362817381CE0102960E94CA
:1017B0008A0105C081E090E09D838C83F0CF78940E
:1017C000DF91CF911F910F91089540918E0150911B
:1017D0008F0120918601309187014115510519F43F
:1017E000F8940C94000085B7837E85BF88952230DD
:1017F000310598F30E94920B40918E0150918F0118
:1018000020918601309187014115510561F7E8CF9C
:10181000EF92FF920F931F93CF93DF937C01F89485
:1018200080918C0190918D01E0918C01F0918D015E
:101830000081118180918C0190918D01E8012A85B0
:101840003B85C0918801D0918901209731F417C060
:101850000E80DF81C02D209791F088819981281713
:101860003907B1F7BE0186E891E00E944C098091EA
:101870008C0190918D018C179D0709F474C0D801DB
:10188000ED91FC91F182E08285E090E0E8019D839A
:101890008C8380918E0190918F01019790938F019D
:1018A00080938E0188859985892BE1F0E885F985FB
:1018B00081E090E0958384836885798580918C01AF
:1018C00090918D01665F7F4F86E891E00E94A109AB
:1018D00080918C0190918D01892B09F44DC0F80104
:1018E0001186108680918C0190918D0180918601E6
:1018F00090918701892BC1F060918C0170918D01CD
:1019000086E891E00E944C0960918C0170918D01F4
:1019100086E891E00E94A109809188019091890157
:1019200090938D0180938C01E0918C01F0918D0159
:101930000190F081E02D0E171F0739F1E8018C812D
:101940009D81029759F082E090E0958384836281C3
:101950007381C80102960E948A0117C081E090E05D
:101960009D838C83F0CF8091880190918901909321
:101970008D0180938C0183CF8091880190918901A2
:1019800090938D0180938C01AACF7894DF91CF91B1
:101990001F910F91FF90EF900895882F992F0E942B
:1019A000080C0895CF92DF92EF92FF920F931F934E
:1019B000CF93DF937C0180918C0190918D01E09118
:1019C0008C01F0918D010081118180918C019091A9
:1019D0008D019AE0C92ED12CC00ED11EE8012A85B6
:1019E0003B85C0918801D0918901209731F416C0C0
:1019F0000E80DF81C02D209789F08881998128177A
:101A00003907B1F7BE0186E891E00E944C09809148
:101A10008C0190918D01C817D90751F184E090E0B5
:101A2000F80195838483B601C7010E94A109E801EA
:101A3000FF82EE82E0918C01F0918D010190F081A6
:101A4000E02D0E171F07E9F08C819D81029759F058
:101A500082E090E09583848362817381C80102965D
:101A60000E948A010EC081E090E09D838C83F0CFBC
:101A7000809188019091890190938D0180938C01D0
:101A8000CDCF7894DF91CF911F910F91FF90EF9080
:101A9000DF90CF9008956F5F7F4F09F008958130F8
:101AA0009105F1F0892BD1F78091980190919901DE
:101AB000892B51F5E0E7F0E010A280919801909118
:101AC0009901892B41F5E9E0F0E010A2809198019D
:101AD00090919901892BD9F4EAE0F0E010A20895E1
:101AE0001092990110929801109290008FE289B99A
:101AF00086E880939A01809395001BB8EAE0F0E0B5
:101B000080A1886180A30895E8E7F0E0D5CFEAE7F7
:101B1000F0E010A20895E9E7F0E0D7CF6FEF7FEF94
:101B200080E090E00E944B0D08956FEF7FEF81E021
:101B300090E00E944B0D0895E82FFF27E7FDF095F8
:101B4000E332F10550F4EE0FFF1FE556FE4F019012
:101B5000F081E02D309709F009950895CF93DF9338
:101B6000CDB7DEB722970FB6F894DEBF0FBECDBF5C
:101B700080E090E19A83898360E071E0CE01019674
:101B80000E94100E22960FB6F894DEBF0FBECDBF96
:101B9000DF91CF91089501979EBF8DBF1F900F9049
:101BA0002F903F904F905F906F907F908F909F907D
:101BB000AF90BF90CF90DF90EF90FF900F911F916B
:101BC0002F913F914F915F916F917F918F919F9155
:101BD000AF91BF91CF91DF91EF91FF911FBE112483
:101BE000089508956F5F7F4F09F008950197E9F711
:101BF0001092E2011092E1011092E4011092E301CF
:101C00001092E6011092E5011092E8011092E701AE
:101C100008956FEF7FEF81E090E00E94F20D08954C
:101C2000EF92FF920F931F93CF93DF93FC010081FC
:101C300011810115110509F4F2C06115710509F44E
:101C4000EEC0F801118300837383628315821482CE
:101C50008091E7019091E801860F971F9093E8012A
:101C60008093E701628173819801260F371F4091AD
:101C7000E3015091E4014115510509F480C0FA01D6
:101C8000808191812817390709F479C0EA010C8015
:101C9000DD81C02D209729F08881998182179307D3
:101CA000B1F7F801E080F1804115510509F465C0F4
:101CB000FA018081918122813381820F931FE8167E
:101CC000F90609F45AC0DA01FD01A481B581109723
:101CD00059F0FD01828193812D913C911197820FE2
:101CE000931FE816F90681F72097C9F18A819B8135
:101CF000860F971FF801938382832091E101309131
:101D0000E20121303105E9F14C175D0709F476C095
:101D100041155105B1F0FA0184819581009749F48C
:101D20000BC0AC01009769F0FC018481958100979C
:101D300019F0C817D907A9F78C819D81FA019583FD
:101D400084838091E5019091E601C817D90709F4D1
:101D500050C0215030403093E2012093E1011097B0
:101D6000E9F0FD0182819381F80122813381820FA4
:101D7000931FFD019383828352C0DA01B5CFEA013C
:101D800090CF1092E4011092E3011092E6011092BC
:101D9000E5011092E2011092E101E1CF8091E101B1
:101DA0009091E201009799F0E091E501F091E60150
:101DB00015830483F801158214821093E6010093C1
:101DC000E50101969093E2018093E10128C0F801BA
:101DD000158214821093E4010093E3011093E6014D
:101DE0000093E50121E030E03093E2012093E1012E
:101DF00016C05093E6014093E501ABCF21153105A4
:101E000009F4ADCF8C819D819093E4018093E3012F
:101E1000215030403093E2012093E101A0CFDF91C7
:101E2000CF911F910F91FF90EF9008950F931F9303
:101E3000CF93DF938C01EC01198218826115710533
:101E400009F489C0E091E301F091E401DF013097EA
:101E500009F481C0228133812617370730F40480CA
:101E6000F581E02D3097B1F776C0261B370B338311
:101E700022838091E7019091E801861B970B909354
:101E8000E8018093E7012281338121153105A9F50D
:101E90004091E1015091E20141305105B1F1BD01A4
:101EA000AE17BF0709F440C01097C1F0ED01AC8137
:101EB000BD81109771F0AE17BF0759F0BD011097A3
:101EC00069F0ED01AC81BD81109719F0EA17FB07AD
:101ED000A9F7A481B581EB01BD83AC838091E501B5
:101EE0009091E6018E179F0789F141505040509321
:101EF000E2014093E1012281338180819181820F4F
:101F0000931FF8019183808326C01092E401109200
:101F1000E3011092E6011092E5011092E2011092A5
:101F2000E10122813381E9CF4115510531F3A481CB
:101F3000B581B093E401A093E30141505040509328
:101F4000E2014093E10122813381D7CF7093E60112
:101F50006093E501CACFC801DF91CF911F910F9126
:101F600008951F920F920FB60F9211248F939F9393
:101F7000AF93BF938091E9019091EA01A091EB01A9
:101F8000B091EC010196A11DB11D8093E9019093E0
:101F9000EA01A093EB01B093EC01BF91AF919F9147
:101FA0008F910F900FBE0F901F901895A1E21A2EDF
:101FB000AA1BBB1BFD010DC0AA1FBB1FEE1FFF1FED
:101FC000A217B307E407F50720F0A21BB30BE40B3D
:101FD000F50B661F771F881F991F1A9469F7609584
:101FE0007095809590959B01AC01BD01CF0108953E
:101FF000EE0FFF1F0590F491E02D099410E0CEE95B
:10200000D0E004C0FE010E94FA0F2296C03AD10728
:02201000C9F70E
:1020120041542D4C53485352563D223230302E31CA
:1020220034322E3133302E313034222C22383022C9
:102032000041542D4C534841504E3D227A61702E3E
:10204200636F6D2E6272222C227669766F222C22A9
:102052007669766F22000010000000004E065406DA
:0C206200750600000000420648068B02D4
:00000001FF
