:100000000C9450000E947C000E947C000E947C00A6
:100010000E947C000E947C000E947C000E947C0068
:100020000E947C000E947C000E947C000E947C0058
:100030000E947C000E947C000E94210D0E947C0096
:100040000E947C000E947C000E947C000E947C0038
:100050000E947C000E947C000E947C000E947C0028
:100060000E947C000E947C000E947C000E947C0018
:100070000E947C000E947C000E947C000E947C0008
:100080000E947C000E947C000E947C00D001FD0147
:1000900025026802B3022206AF07050B790BFE0AA0
:1000A00011241FBECFEFD0E1DEBFCDBF11E0A0E035
:1000B000B1E0EEEAFAE100E00BBF02C007900D925A
:1000C000A834B107D9F711E0A8E4B1E001C01D924E
:1000D000A93DB107E1F710E0CEE9D0E004C02297D6
:1000E000FE010E94480DCC38D107C9F70C94B0002E
:1000F0000E941E0B0E94B0001F920F920FB60F922B
:100100008F93CF93DF93DEB7CDB788851A8018869B
:1001100019801F822296DEBFCDBF11242F933F93FB
:100120004F935F936F937F939F93AF93BF93EF939F
:10013000FF93869581500E940C0BFF91EF91BF9128
:10014000AF919F917F916F915F914F913F912F91CF
:100150008F910F900FBE0F901F90DF91CF91189548
:100160008FEF87BB88BB1A821982109290008FE2B2
:1001700089B986E88B8389819A81892B09F0A3C08C
:10018000E5E7F0E086E880A389819A81892B09F070
:1001900097C0EBE0F0E010A229813A8121153105EA
:1001A00009F08BC0EAE0F0E080A18861232B09F020
:1001B00081C0EAE0F0E080A38FEF87BB8FEF9FEF75
:1001C0000197F1F78FEF9FEF0197F1F781E088BB7F
:1001D0008FEF9FEF0197F1F7809121018823F9F0CC
:1001E000A2E2B1E0FD013197908129813A8105C0F9
:1001F000EBE0F0E080A185FD08C021153105C1F3D9
:10020000EBE7F0E080A185FFF8CF232B09F04FC08A
:10021000ECE0F0E090A3FD018D91882329F78FEFAA
:100220009FEF0197F1F78FEF9FEF0197F1F784E0D0
:1002300088BB809100018823F1F0A1E0B1E0FD01CD
:100240003197908129813A8105C0EBE0F0E080A1EF
:1002500085FD08C021153105C1F3EBE7F0E080A171
:1002600085FFF8CF232B01F5ECE0F0E090A3FD0132
:100270008D91882331F718BADE01119689819A8110
:10028000892B51F5E0E7F0E010A28D919C91119738
:10029000892BF9F4E9E0F0E010A28D919C91892B73
:1002A000A9F4EAE0F0E01BC0ECE7F0E0DFCFECE718
:1002B000F0E0B0CFEAE7F0E07ECFEAE7F0E074CF1D
:1002C000EBE7F0E068CFEDE7F0E05CCFEAE7F0E0E5
:1002D00006C0E9E7F0E0E0CFE8E7F0E0D5CF10A214
:1002E00080E090E00C9474010C946F021FB6FF93B1
:1002F000EF93DF93CF93BF93AF939F938F937F93AE
:100300006F935F934F933F932F931F930F93FF929E
:10031000EF92DF92CF92BF92AF929F928F927F9295
:100320006F925F924F923F922F920F921F921124E1
:10033000B92FA82F9EB78DB701968D939C93972FB9
:10034000862F01979EBF8DBF1F900F902F903F90DB
:100350004F905F906F907F908F909F90AF90BF90E5
:10036000CF90DF90EF90FF900F911F912F913F91D1
:100370004F915F916F917F918F919F91AF91BF91BD
:10038000CF91DF91EF91FF911FBE112408956F5F10
:100390007F4F09F008950197E9F70E94F804089546
:1003A0006FEF7FEF81E090E00E94C7010895CF9347
:1003B000DF93CDB7DEB722970FB6F894DEBF0FBE3E
:1003C000CDBF6F5F7F4F81F4019771F460E072E001
:1003D000CE0101960E94860C69817A8140E052E04C
:1003E00088E491E00E94140322960FB6F894DEBFD1
:1003F0000FBECDBFDF91CF9108956FEF7FEF81E00A
:1004000090E00E94D70108956F5F7F4F09F0089533
:100410000197E9F78AE090E09093530180935201AD
:10042000909351018093500110924901109248011C
:1004300010924B0110924A0110924D0110924C0102
:1004400010924F0110924E0108956FEF7FEF81E0FF
:1004500090E00E9404020895CF93DF93CDB7DEB7FA
:1004600022970FB6F894DEBF0FBECDBF0E940404E2
:100470000E947202FC0186A9882321F488E790E09B
:1004800095AB84AB60ED77E0CE0101960E94860CBF
:1004900069817A8140ED57E085E591E00E9414037F
:1004A0000E943B040E94530422960FB6F894DEBFCC
:1004B0000FBECDBFDF91CF9108956F5F7F4F09F0E1
:1004C00008950197E9F784E591E00E942C020895D0
:1004D0006FEF7FEF81E090E00E945D0208950E943F
:1004E000F109FFCF809146019091470108956F5F18
:1004F0007F4F09F008950197E9F710928501109256
:100500008401109290008FE289B986E88093860179
:10051000809395001BB8EAE0F0E080A1886180A399
:100520001092830110928201109281011092800139
:100530008AE090E09093600180935F0190935E0168
:1005400080935D011092560110925501109258014E
:100550001092570110925A011092590110925C01A9
:1005600010925B0108956FEF7FEF81E090E00E94B1
:100570007702089585B7837E85BF88950895CF93C8
:10058000DF93EC01AB018A819B816C817D812881A5
:10059000398121303105C1F0FA01A481B58110976C
:1005A00069F1FA01868197810097A9F0FD0197838F
:1005B0008683FA0186819781FC01B583A48321504B
:1005C0003040398328832CC01B821A821D821C82F2
:1005D0001982188225C02115310511F1213031050C
:1005E00099F3FB01A481B581BD83AC83FD01178222
:1005F0001682215030403983288312C021153105DD
:1006000079F02130310501F3FC01A681B781BB836C
:10061000AA83FD011582148221503040398328833A
:10062000CA01DF91CF9108950F931F93CF93DF936A
:10063000DC018B016115710509F48FC0483051054B
:1006400008F48BC0FB01718360835383428315825E
:10065000148217821682FC0186819781840F951F70
:1006600097838683FB0122813381260F371FFD018B
:10067000C281D381209709F443C0888199812817CA
:100680003907F1F1BE01FB016681778161157105C2
:1006900031F0FB018081918128173907A1F7F8011A
:1006A00040815181209731F431C00E80DF81C02D0F
:1006B000209761F1888199812A813B81820F931F64
:1006C0004817590791F76115710571F0F80182819A
:1006D0009381FB0122813381820F931FF801938361
:1006E0008283CD010E94BF022097B9F18A819B814C
:1006F000F80122813381820F931F9B838A832DC04F
:10070000BE01F801408151812097A1F6FD012481AD
:1007100035818D919C911197009779F4F80115829C
:10072000148217821682FD011383028315830483CA
:10073000019611969C938E93C6CFF9011783068379
:10074000F8013583248317821682FD011583048303
:10075000019611969C938E93B6CFDF91CF911F9106
:100760000F9108950F931F93CF93DF93FC016115B1
:10077000710519F421C06F5F7F4F60FDFCCF8B01C5
:100780000E5F1F4F0830110580F1C281D381209781
:1007900081F09801285F3F4F8A819B8182179307E0
:1007A00070F48017910759F00E80DF81C02D2097DB
:1007B00099F7CF010E94BA0280E090E020C0801B30
:1007C000910B9B838A8386819781801B910B9783F2
:1007D00086838A819B81009759F0E881F981E80F2F
:1007E000F91F01931193CF010AC008E010E0CDCFAB
:1007F000BE01CF010E94BF028A819B81EECFDF91B3
:10080000CF911F910F91089585B7806285BF0E9497
:100810000C040E942D040895CF93DF93CDB7DEB76B
:1008200022970FB6F894DEBF0FBECDBF0E947202B2
:100830008AED91E09A83898360E070E1681B790B0F
:10084000CE0101960E94800B22960FB6F894DEBF6F
:100850000FBECDBFDF91CF91089585E08EBD109280
:10086000D5011092D6011092D7011092D80187B706
:10087000846087BF08950E94720228E730E0FC017F
:1008800035AB24AB19BE17BE10927D006F988AB1AC
:100890008F718AB9EAE9F0E080818F71808337989F
:1008A0004798E39808950E94DE050E945804089531
:1008B0000E9472020895BC018930910568F429B73D
:1008C0006150704081E090E002C0880F991F6A95E6
:1008D000E2F7282B29BF089581319105B8F08831BE
:1008E000910519F18931910530F58431910509F4AB
:1008F00057C08531910508F43DC08631910509F452
:1009000061C0479708F45CC0479A089547B720E153
:1009100030E0281B390B81E090E002C0880F991F5E
:100920002A95E2F7482B47BF089580917D008160AA
:1009300080937D0008958C31910561F18D31910591
:1009400070F08E31910509F43FC08E31910550F160
:100950008F31910509F446C08097B1F008958A312E
:100960009105D1F14B9730F180917D0088608093A3
:100970007D0008958231910569F183319105C0F4BC
:10098000419761F76F9A089580919A0080648093EF
:100990009A00089580917D00826080937D00089583
:1009A000569A089580917D00846080937D0008951B
:1009B000559A089580917D00806280937D0008950E
:1009C000379A0895E39A089580919A0080688093F9
:1009D0009A000895579A089580917D0080618093D0
:1009E0007D00089580919A00806280939A00089516
:1009F0009F92AF92BF92CF92DF92EF92FF920F93AE
:100A00001F93CF93DF93CDB7DEB72C970FB6F89433
:100A1000DEBF0FBECDBF0E947202FC0104A915A962
:100A200018861F8285E5A82E81E0B82E62E170E06D
:100A3000C5010E94B2037C0182E090E0F70195833A
:100A400084831782168211861086D7011A96F38640
:100A5000E2868F8198859E838D838D819E81FD01A5
:100A6000938382831582148217821682F89460E041
:100A700071E0C5010E94B203AC01D7018D939C9334
:100A800086EB9AE0D82ECC24892F9927C82AD92A18
:100A900042505F4FFA01D182C0824E5F5040DA016E
:100AA000A452BF4FF0E89F2E9C92902F8827212FB1
:100AB0003327822B932BFD0191A380A3448F852F95
:100AC0009927858FF701B383A2831C870B8740E0AA
:100AD00051E0BE01655F7F4FC7010E9419098FEF8A
:100AE0009FE79C838B8362E170E0C5010E94B203A3
:100AF0008C0181E090E0F80195838483178216824F
:100B000011861086D8011A96138702878B819C81E3
:100B10009A83898389819A81FD01938382831582D7
:100B2000148217821682F89460E071E0C5010E9479
:100B3000B203BC01D8018D939C9362507F4FFB019F
:100B4000D182C0826E5F70404EEC59E0DB01A4524E
:100B5000BF4F9C92942F8827252F3327822B932BCE
:100B6000FD0191A380A3648F872F9927858FF801BA
:100B7000B383A2835A87498740E051E0BE01675F93
:100B80007F4FC8010E94190981E080937101F7012C
:100B9000828193810E943B0B2C960FB6F894DEBFA6
:100BA0000FBECDBFDF91CF911F910F91FF90EF90BE
:100BB000DF90CF90BF90AF909F9008950F931F93B9
:100BC00061E070E085E591E00E94B2038C01109233
:100BD000870081E0809386008DE080938A008FE01B
:100BE00097E09093BC018093BB018AE190E00E9462
:100BF0005B04EDE7F0E080818061808310936C01FD
:100C000000936B0180E090E01F910F9108956F5F5A
:100C10007F4F09F008950197E9F710926E01109245
:100C20006D011092700110926F011092620110928A
:100C3000610110926401109263011092660110929A
:100C4000650108956FEF7FEF81E090E00E94070655
:100C500008950F931F93CF93DF938C01FB01EA015B
:100C600079876887E9017F836E835783468331875D
:100C70002087F80180819181019691838083DF91A3
:100C8000CF911F910F910895AF92BF92CF92DF92B3
:100C9000EF92FF920F931F93CF93DF938C01EB01A1
:100CA000FC01608171816115710509F46AC0FC0164
:100CB000C280D3802A813B814C815D81F601828193
:100CC0009381A481B581281739074A075B0708F487
:100CD0003FC0F601808591850097D1F15C0182814A
:100CE0009381A481B581281B390B4A0B5B0B2A83A6
:100CF0003B834C835D837501F50182819381A481DF
:100D0000B581281739074A075B0740F1F501A08430
:100D1000B184A114B10439F7281739074A075B07D2
:100D200010F5F701A680B780A114B10409F445C0FD
:100D3000821B930BA40BB50BF70182839383A483CF
:100D4000B5839701A501BE01C8010E9429065CC0B8
:100D50007601F60182819381A481B5812817390734
:100D60004A075B07F0F2281B390B4A0B5B0B2A83FF
:100D70003B834C835D83F801A481B58161157105C6
:100D800069F41F821E8219861886D383C283D58395
:100D9000C48361E070E07183608336C0FD01D18758
:100DA000C087BF83AE8319861886F801D583C483B4
:100DB0006F5F7F4F7183608327C0821B930BA40BEF
:100DC000B50B82839383A483B5836115710579F094
:100DD0001F821E82D986C886F601D783C683F80192
:100DE000D383C2836F5F7F4F718360830DC01F8287
:100DF0001E8219861886F801D383C283D583C483E3
:100E000061E070E071836083DF91CF911F910F915A
:100E1000FF90EF90DF90CF90BF90AF900895CF9369
:100E2000DF93F8948091670190916801A091690126
:100E3000B0916A010196A11DB11D80936701909345
:100E40006801A0936901B0936A012091610130911A
:100E5000620121153105A1F04091630150916401B7
:100E6000EA018A819B81AC81BD810197A109B10909
:100E7000FA0182839383A483B583181619068CF430
:100E8000C0E0D0E07894209709F447C0EC81FD8160
:100E9000A081B181ED012C813D81CF01F90109953E
:100EA0003CC02130310561F1EA01E885F985F09314
:100EB0006401E09363011782168221503040309321
:100EC000620120936101FA01C081D1818E819F81ED
:100ED000FFEF8F3F9F0719F001979F838E83892B28
:100EE00089F288819981AA81BB81FA0182839383E7
:100EF000A483B583BA0181E691E00E944406C2CF83
:100F000010926401109263011092660110926501C3
:100F10001092620110926101D6CFDF91CF910895B6
:100F20006F5F7F4F09F008950197E9F710927D01F7
:100F300010927C0110927F0110927E011092730139
:100F40001092720110927501109274011092770143
:100F500010927601109279011092780108956FEF46
:100F60007FEF81E090E00E94900708950F931F9318
:100F7000CF93DF938C01FB01EA017F836E83E9014C
:100F80007D836C835583448337832683F801808176
:100F90009181019691838083DF91CF911F910F9171
:100FA0000895CF93DF93EC01AB018A819B816C8123
:100FB0007D812881398121303105C1F0FA01A48178
:100FC000B581109769F1FA01868197810097A9F0A0
:100FD000FD0197838683FA0186819781FC01B583A1
:100FE000A48321503040398328832CC01B821A826D
:100FF0001D821C821982188225C02115310511F12C
:101000002130310599F3FB01A481B581BD83AC8307
:10101000FD0117821682215030403983288312C087
:101020002115310579F02130310501F3FC01A6814C
:10103000B781BB83AA83FD01158214822150304001
:1010400039832883CA01DF91CF910895EF92FF92EF
:101050000F931F93CF93DF937C01DB01EC01688139
:1010600079816115710509F445C0EC010A811B8184
:10107000F80122813381ED018A819B8182179307D8
:101080004CF1E8018E819F81009721F1FC01AF01B5
:1010900022813381ED018A819B8182179307DCF0E5
:1010A0000680F781E02D309791F7EA012A813B8194
:1010B000FD018281938182179307B4F4EA018C8148
:1010C0009D810097A1F19A01AC01BD01C7010E9469
:1010D000B6074EC0A801EA012A813B81FD01828149
:1010E00093818217930754F3E701EC81FD81611529
:1010F000710571F4FD011582148217821682BB837B
:10110000AA83BD83AC8361E070E07983688330C0DB
:10111000B783A683ED01FD83EC831F821E82F70156
:10112000B583A4836F5F7F4F7183608321C0611596
:10113000710581F0FD011582148217830683E80191
:10114000BD83AC83F701B383A2836F5F7F4F71834D
:1011500060830EC0FD011582148217821682E7019A
:10116000BB83AA83BD83AC8361E070E0798368832D
:10117000DF91CF911F910F91FF90EF900895CF9342
:10118000DF93882309F451C0E0917801F09179014F
:10119000C081D18180917801909179018091720113
:1011A00090917301892BC9F4E0917801F091790154
:1011B0000190F081E02DCE17DF07B9F18C819D8180
:1011C000029771F182E090E095838483628173815C
:1011D000CE0102960E94760128C06091780170913C
:1011E000790182E791E00E94D107609178017091C6
:1011F000790182E791E00E94260880917401909124
:1012000075019093790180937801E0917801F091D4
:1012100079010190F081E02DCE17DF0779F605C046
:1012200081E090E09D838C83CDCF7894DF91CF9146
:101230000895CF93DF93EC018A819B8180917A019D
:1012400090917B01019690937B0180937A0180912C
:10125000780190917901BE01665F7F4F82E791E04E
:101260000E9426088091780190917901892BA1F143
:101270008C819D810197C9F18C819D810297A9F193
:1012800080917801909179016A857B85C091740184
:10129000D0917501209731F428C00E80DF81C02DD8
:1012A000209719F18881998168177907B1F7BE01F4
:1012B00082E791E00E94D1078091780190917901B5
:1012C0008C179D0791F48091740190917501909312
:1012D00079018093780109C0809174019091750122
:1012E0009093790180937801C3CF81E00E94BF0879
:1012F000DF91CF9108950F931F93CF93DF93F894CD
:101300008091780190917901E0917801F0917901D3
:10131000C081D18180917801909179018091720191
:10132000909173010297B0F00091780110917901CA
:10133000B80182E791E00E94D107809174019091F9
:1013400075019093790180937801B80182E791E06B
:101350000E942608E0917801F09179010190F081D6
:10136000E02DCE17DF07A1F08C819D81029759F007
:1013700082E090E09583848362817381CE0102963E
:101380000E94760105C081E090E09D838C83F0CFC0
:101390007894DF91CF911F910F91089540917A0138
:1013A00050917B01209172013091730141155105DB
:1013B00019F4F8940C94000085B7837E85BF889556
:1013C0002230310598F30E947B0940917A015091B7
:1013D0007B0120917201309173014115510561F734
:1013E000E8CFEF92FF920F931F93CF93DF937C018F
:1013F000F8948091780190917901E0917801F091D1
:101400007901008111818091780190917901E80141
:101410002A853B85C0917401D0917501209731F4E4
:1014200017C00E80DF81C02D209791F088819981AF
:1014300028173907B1F7BE0182E791E00E94D10772
:1014400080917801909179018C179D0709F474C0FF
:10145000D801ED91FC91F182E08285E090E0E80115
:101460009D838C8380917A0190917B010197909369
:101470007B0180937A0188859985892BE1F0E88545
:10148000F98581E090E095838483688579858091F2
:10149000780190917901665F7F4F82E791E00E9429
:1014A00026088091780190917901892B09F44DC02B
:1014B000F8011186108680917801909179018091D0
:1014C000720190917301892BC1F060917801709144
:1014D000790182E791E00E94D107609178017091D3
:1014E000790182E791E00E94260880917401909131
:1014F00075019093790180937801E0917801F091E2
:1015000079010190F081E02D0E171F0739F1E801F4
:101510008C819D81029759F082E090E095838483CD
:1015200062817381C80102960E94760117C081E032
:1015300090E09D838C83F0CF809174019091750130
:10154000909379018093780183CF80917401909179
:1015500075019093790180937801AACF7894DF91F7
:10156000CF911F910F91FF90EF900895882F992FA1
:101570000E94F10908956F5F7F4F09F0089581304F
:101580009105F1F0892BD1F780918401909185012B
:10159000892B51F5E0E7F0E010A280918401909151
:1015A0008501892B41F5E9E0F0E010A280918401EA
:1015B00090918501892BD9F4EAE0F0E010A208951A
:1015C0001092850110928401109290008FE289B9E7
:1015D00086E880938601809395001BB8EAE0F0E0EE
:1015E00080A1886180A30895E8E7F0E0D5CFEAE71D
:1015F000F0E010A20895E9E7F0E0D7CF6FEF7FEFBA
:1016000080E090E00E94BB0A08956FEF7FEF81E0D9
:1016100090E00E94BB0A0895E82FFF27E7FDF095B0
:10162000E332F10550F4EE0FFF1FE957FE4F019032
:10163000F081E02D309709F009950895CF93DF935D
:10164000CDB7DEB722970FB6F894DEBF0FBECDBF81
:1016500080E090E19A83898360E071E0CE01019699
:101660000E94800B22960FB6F894DEBF0FBECDBF4E
:10167000DF91CF91089501979EBF8DBF1F900F906E
:101680002F903F904F905F906F907F908F909F90A2
:10169000AF90BF90CF90DF90EF90FF900F911F9190
:1016A0002F913F914F915F916F917F918F919F917A
:1016B000AF91BF91CF91DF91EF91FF911FBE1124A8
:1016C000089508956F5F7F4F09F008950197E9F736
:1016D0001092CE011092CD011092D0011092CF0144
:1016E0001092D2011092D1011092D4011092D30124
:1016F00008956FEF7FEF81E090E00E94620B089504
:10170000EF92FF920F931F93CF93DF93FC01008121
:1017100011810115110509F4F2C06115710509F473
:10172000EEC0F801118300837383628315821482F3
:101730008091D3019091D401860F971F9093D4018B
:101740008093D301628173819801260F371F4091E6
:10175000CF015091D0014115510509F480C0FA0123
:10176000808191812817390709F479C0EA010C803A
:10177000DD81C02D209729F08881998182179307F8
:10178000B1F7F801E080F1804115510509F465C019
:10179000FA018081918122813381820F931FE816A3
:1017A000F90609F45AC0DA01FD01A481B581109748
:1017B00059F0FD01828193812D913C911197820F07
:1017C000931FE816F90681F72097C9F18A819B815A
:1017D000860F971FF801938382832091CD0130916A
:1017E000CE0121303105E9F14C175D0709F476C0CF
:1017F00041155105B1F0FA0184819581009749F4B2
:101800000BC0AC01009769F0FC01848195810097C1
:1018100019F0C817D907A9F78C819D81FA01958322
:1018200084838091D1019091D201C817D90709F41E
:1018300050C0215030403093CE012093CD011097FD
:10184000E9F0FD0182819381F80122813381820FC9
:10185000931FFD019383828352C0DA01B5CFEA0161
:1018600090CF1092D0011092CF011092D20110921D
:10187000D1011092CE011092CD01E1CF8091CD0126
:101880009091CE01009799F0E091D101F091D201B1
:1018900015830483F801158214821093D2010093FA
:1018A000D10101969093CE018093CD0128C0F8011B
:1018B000158214821093D0010093CF011093D201AE
:1018C0000093D10121E030E03093CE012093CD018F
:1018D00016C05093D2014093D101ABCF21153105F1
:1018E00009F4ADCF8C819D819093D0018093CF017D
:1018F000215030403093CE012093CD01A0CFDF9115
:10190000CF911F910F91FF90EF9008950F931F9328
:10191000CF93DF938C01EC01198218826115710558
:1019200009F489C0E091CF01F091D001DF01309737
:1019300009F481C0228133812617370730F40480EF
:10194000F581E02D3097B1F776C0261B370B338336
:1019500022838091D3019091D401861B970B9093A1
:10196000D4018093D3012281338121153105A9F55A
:101970004091CD015091CE0141305105B1F1BD01F1
:10198000AE17BF0709F440C01097C1F0ED01AC815C
:10199000BD81109771F0AE17BF0759F0BD011097C8
:1019A00069F0ED01AC81BD81109719F0EA17FB07D2
:1019B000A9F7A481B581EB01BD83AC838091D101EE
:1019C0009091D2018E179F0789F14150504050935A
:1019D000CE014093CD012281338180819181820F9C
:1019E000931FF8019183808326C01092D00110923A
:1019F000CF011092D2011092D1011092CE0110921B
:101A0000CD0122813381E9CF4115510531F3A48104
:101A1000B581B093D001A093CF0141505040509375
:101A2000CE014093CD0122813381D7CF7093D20173
:101A30006093D101CACFC801DF91CF911F910F915F
:101A400008951F920F920FB60F9211248F939F93B8
:101A5000AF93BF938091D5019091D601A091D7010A
:101A6000B091D8010196A11DB11D8093D50190932D
:101A7000D601A093D701B093D801BF91AF919F91A8
:101A80008F910F900FBE0F901F901895EE0FFF1FB4
:101A90000590F491E02D099410E0CEE9D0E004C067
:0E1AA000FE010E94480D2296C03AD107C9F7F8
:101AAE0041542D4C53485352563D223230302E3134
:101ABE0034322E3133302E313034222C2238302233
:101ACE000041542D4C534841504E3D227A61702EA8
:101ADE00636F6D2E6272222C227669766F222C2213
:081AEE007669766F22000010FA
:00000001FF
